:020000040800F2
:1000000000800220D5020008D3020008D1020008B7
:10001000D1020008D1020008D1020008000000004F
:10002000000000000000000000000000D3020008F3
:10003000D302000800000000D3020008D302000829
:10004000D1020008D1020008D1020008D102000844
:10005000D1020008D1020008D1020008D102000834
:10006000D1020008D1020008D1020008D102000824
:10007000D1020008D1020008D1020008D102000814
:10008000D1020008D1020008D1020008D102000804
:10009000D1020008D1020008D1020008D1020008F4
:1000A000D1020008D1020008D1020008D1020008E4
:1000B000D1020008D1020008D1020008D1020008D4
:1000C000D1020008D1020008D1020008D1020008C4
:1000D000D1020008D1020008D1020008D1020008B4
:1000E000D1020008D1020008D1020008D1020008A4
:1000F000D1020008D1020008D1020008D102000894
:10010000D1020008D1020008D1020008D102000883
:10011000D1020008D1020008D1020008D102000873
:10012000D1020008D1020008D1020008D102000863
:10013000D1020008D1020008D1020008D102000853
:10014000D1020008D1020008D1020008D102000843
:10015000D1020008D1020008D1020008D102000833
:10016000D1020008D1020008D1020008D102000823
:10017000D1020008D1020008D1020008D102000813
:10018000D1020008D1020008D1020008D102000803
:10019000D1020008D1020008D1020008D1020008F3
:1001A000D1020008D1020008D102000800B583B0D6
:1001B000A0F5FA520E4B9A4210D800EB8000420094
:1001C0000C48A0FB02320821019102200090072375
:1001D000120B00F05BF803B05DF804FB08210191FD
:1001E000022000900723102200F050F8F3E700BF30
:1001F000B0300100D34D621008B549F64040FFF71A
:10020000D5FF4FF4186000F055F820230122114665
:100210004FF0904000F019F809E000BF0133054AA3
:100220009342FADD20214FF0904000F005F80023C2
:10023000F5E700BF7F1A0600436901EA030221EADD
:10024000030141EA0241816170472DE9F0410568EF
:10025000C46800264FF0030E43FA06F7FF070DD5DA
:1002600077000EFA07FC01FA07F825EA0C0524EAE4
:100270000C0402FA07F748EA05053C430136102E44
:10028000EAD10560C460BDE8F081000010B5039CB0
:100290000139640644EA01142043029C40EA4450B8
:1002A000034343EA0222024B42F08072DA6010BD3F
:1002B00000100240430903F1804303F5043300F0CA
:1002C0001F001968012202FA00F008431860704705
:1002D000FEE7704738B51D4A1D4B1E498B4220D39F
:1002E0001D4A0021934221D34FF0E0231B4CD3F849
:1002F000142D1B4D42F40072C3F8142DD3F8882D31
:1003000042F47002C3F8882DAC4212D3154C164D3E
:10031000AC4212D3FFF770FF144C154DAC4210D312
:1003200038BD52F8040B43F8040BD7E743F8041B1D
:10033000D8E754F8043B9847E6E754F8043B98475D
:10034000E6E754F8043B9847E8E700BF7403000869
:1003500000000020000000200000002074030008BE
:100360007403000874030008740300087403000891
:04037000740300080A
:04000005080002D518
:00000001FF
