:020000040800F2
:100000000080022005040008030400080104000821
:1000100001040008010400080104000800000000B9
:1000200000000000000000000000000003040008C1
:100030000304000800000000030400080304000893
:10004000010400080104000801040008010400087C
:10005000010400080104000801040008010400086C
:10006000010400080104000801040008010400085C
:10007000010400080104000801040008010400084C
:10008000010400080104000801040008010400083C
:10009000010400080104000801040008010400082C
:1000A000010400080104000801040008010400081C
:1000B000010400080104000801040008010400080C
:1000C00001040008010400080104000801040008FC
:1000D00001040008010400080104000801040008EC
:1000E00001040008010400080104000801040008DC
:1000F00001040008010400080104000801040008CC
:1001000001040008010400080104000801040008BB
:1001100001040008010400080104000801040008AB
:10012000010400080104000801040008010400089B
:10013000010400080104000801040008010400088B
:10014000010400080104000801040008010400087B
:10015000010400080104000801040008010400086B
:10016000010400080104000801040008010400085B
:10017000010400080104000801040008010400084B
:10018000010400080104000801040008010400083B
:10019000010400080104000801040008010400082B
:1001A00001040008010400080104000801E000BF88
:1001B00001380028FBDC704710B582B0022000F047
:1001C000BBF800F049F8042000F04EF800F056F8B3
:1001D00000F05CF8002401940094234628220421B6
:1001E000022000F0EBF8204600F0A6F84FF418606B
:1001F00000F0F8F8032000F0D7F8204600F078F877
:10020000044B054A1360054A1360054A136002B0A7
:1002100010BD00BF00B4C404000000200400002092
:100220000800002008B5FFF7C7FF4FF4186000F082
:10023000D9F82023012211464FF0904000F037F802
:1002400020214FF0904000F029F80248FFF7AEFF60
:10025000F6E700BF801A0600024A136843F4807371
:100260001360704700200240034A136823F007031D
:1002700018431060704700BF00200240024A136814
:1002800043F480631360704700200240024A136801
:1002900043F400731360704700200240436901EA91
:1002A000030221EA030141EA0241816170472DE91D
:1002B000F0410568C46800264FF0030E43FA06F7C4
:1002C000FF070DD577000EFA07FC01FA07F825EABB
:1002D0000C0524EA0C0402FA07F748EA05053C433A
:1002E0000136102EEAD10560C460BDE8F08100003F
:1002F000032808D8DFE800F0160F08020D4A9368BB
:1003000013F00C0FFBD170470A4A9368C3F38103C3
:10031000012BFAD17047074A9368C3F38103022B7C
:10032000FAD17047034A9368C3F38103032BFAD1D0
:10033000704700BF00100240062831D8DFE800F007
:10034000040A0F1419212900164A136843F0807318
:1003500013607047134A136843F48033F8E7114A77
:10036000136843F48073F3E70E4A136843F0010304
:10037000EEE70C4AD2F8903043F00103C2F8903017
:100380007047084AD2F8943043F00103C2F8943021
:100390007047044AD2F8983043F00103C2F898300D
:1003A000704700BF00100240034A936823F0030324
:1003B00018439060704700BF0010024010B5039CC6
:1003C0000139640644EA01142043029C40EA445087
:1003D000034343EA0222024B42F08072DA6010BD0E
:1003E00000100240430903F1804303F5043300F099
:1003F0001F001968012202FA00F0084318607047D4
:10040000FEE7704738B51D4A1D4B1E498B4220D36D
:100410001D4A0021934221D34FF0E0231B4CD3F817
:10042000142D1B4D42F40072C3F8142DD3F8882DFF
:1004300042F47002C3F8882DAC4212D3154C164D0D
:10044000AC4212D3FFF7EEFE144C154DAC4210D364
:1004500038BD52F8040B43F8040BD7E743F8041BEC
:10046000D8E754F8043B9847E6E754F8043B98472C
:10047000E6E754F8043B9847E8E700BFA404000807
:10048000000000200C0000200C000020A404000844
:10049000A4040008A4040008A4040008A40400089C
:0404A000A4040008A8
:0C04A40000093D0000093D0000093D007A
:0400000508000405E6
:00000001FF
