:020000040800F2
:10000000008002205D020008590200085702000823
:1000100057020008570200085702000800000000BD
:10002000000000000000000000000000590200086D
:100030005902000800000000590200085902000897
:10004000570200085702000857020008570200082C
:10005000570200085702000857020008570200081C
:10006000570200085702000857020008570200080C
:1000700057020008570200085702000857020008FC
:1000800057020008570200085702000857020008EC
:1000900057020008570200085702000857020008DC
:1000A00057020008570200085702000857020008CC
:1000B00057020008570200085702000857020008BC
:1000C00057020008570200085702000857020008AC
:1000D000570200085702000857020008570200089C
:1000E000570200085702000857020008570200088C
:1000F000570200085702000857020008570200087C
:10010000570200085702000857020008570200086B
:10011000570200085702000857020008570200085B
:10012000570200085702000857020008570200084B
:10013000570200085702000857020008570200083B
:10014000570200085702000857020008570200082B
:10015000570200085702000857020008570200081B
:10016000570200085702000857020008570200080B
:1001700057020008570200085702000857020008FB
:1001800057020008570200085702000857020008EB
:1001900057020008570200085702000857020008DB
:1001A00057020008570200085702000801E000BF8C
:1001B00001380028FBDC704708B54FF4186000F0E8
:1001C0003CF82023012211464FF0904000F015F832
:1001D00020214FF0904000F007F80248FFF7E6FFBB
:1001E000F6E700BF03170100436901EA030221EAB1
:1001F000030141EA0241816170472DE9F041056840
:10020000C46800264FF0030E43FA06F7FF070DD52A
:1002100077000EFA07FC01FA07F825EA0C0524EA34
:100220000C0402FA07F748EA05053C430136102E94
:10023000EAD10560C460BDE8F081430903F1804361
:1002400003F5043300F01F001968012202FA00F0E0
:10025000084318607047FEE77047000038B51D4A34
:100260001D4B1E498B4220D31D4A0021934221D3AE
:100270004FF0E0231B4CD3F8142D1B4D42F40072B9
:10028000C3F8142DD3F8882D42F47002C3F8882DDA
:10029000AC4212D3154C164DAC4212D3FFF78CFF73
:1002A000144C154DAC4210D338BD52F8040B43F832
:1002B000040BD7E743F8041BD8E754F8043B9847EE
:1002C000E6E754F8043B9847E6E754F8043B9847C0
:1002D000E8E700BFFC02000800000020000000204A
:1002E00000000020FC020008FC020008FC020008DC
:0C02F000FC020008FC020008FC020008F0
:040000050800025D90
:00000001FF
