:020000040800F2
:1000000000800220F9020008F7020008F50200084B
:10001000F5020008F5020008F502000800000000E3
:10002000000000000000000000000000F7020008CF
:10003000F702000800000000F7020008F7020008BD
:10004000F5020008F5020008F5020008F5020008B4
:10005000F5020008F5020008F5020008F5020008A4
:10006000F5020008F5020008F5020008F502000894
:10007000F5020008F5020008F5020008F502000884
:10008000F5020008F5020008F5020008F502000874
:10009000F5020008F5020008F5020008F502000864
:1000A000F5020008F5020008F5020008F502000854
:1000B000F5020008F5020008F5020008F502000844
:1000C000F5020008F5020008F5020008F502000834
:1000D000F5020008F5020008F5020008F502000824
:1000E000F5020008F5020008F5020008F502000814
:1000F000F5020008F5020008F5020008F502000804
:10010000F5020008F5020008F5020008F5020008F3
:10011000F5020008F5020008F5020008F5020008E3
:10012000F5020008F5020008F5020008F5020008D3
:10013000F5020008F5020008F5020008F5020008C3
:10014000F5020008F5020008F5020008F5020008B3
:10015000F5020008F5020008F5020008F5020008A3
:10016000F5020008F5020008F5020008F502000893
:10017000F5020008F5020008F5020008F502000883
:10018000F5020008F5020008F5020008F502000873
:10019000F5020008F5020008F5020008F502000863
:1001A000F5020008F5020008F502000810B582B05B
:1001B000A0F5FA51174B99420BD900BF1022042128
:1001C0000846019002200090072300F071F802B069
:1001D00010BD02464FEAC00C082002E0013800FBC7
:1001E00002FC0D4B9C45F9D80124102208210BE09C
:1001F00001324FF47A53B3FBF1F302FB03F363458F
:10020000F6D3562A04D90139002CDAD00822F0E7B7
:100210000024F9E740190100C03F050008B542F28B
:100220001070FFF7C3FF4FF4186000F055F820235B
:10023000012211464FF0904000F019F809E000BF8C
:100240000133054A9342FAD920214FF0904000F043
:1002500005F80023F5E700BF1FA10700436901EA85
:10026000030221EA030141EA0241816170472DE95D
:10027000F0410568C46800264FF0030E43FA06F704
:10028000FF070DD577000EFA07FC01FA07F825EAFB
:100290000C0524EA0C0402FA07F748EA05053C437A
:1002A0000136102EEAD10560C460BDE8F08100007F
:1002B00010B5039C0139640644EA01142043029CF2
:1002C00040EA4450034343EA0222024B42F0807268
:1002D000DA6010BD00100240430903F1804303F5CA
:1002E000043300F01F001968012202FA00F00843ED
:1002F00018607047FEE7704738B51D4A1D4B1E4910
:100300008B4220D31D4A0021934221D34FF0E0239A
:100310001B4CD3F8142D1B4D42F40072C3F8142D5E
:10032000D3F8882D42F47002C3F8882DAC4212D362
:10033000154C164DAC4212D3FFF770FF144C154DFF
:10034000AC4210D338BD52F8040B43F8040BD7E786
:1003500043F8041BD8E754F8043B9847E6E754F801
:10036000043B9847E6E754F8043B9847E8E700BFAA
:10037000980300080000002000000020000000207A
:1003800098030008980300089803000898030008E1
:0803900098030008980300081F
:04000005080002F9F4
:00000001FF
