:020000040800F2
:1000000000800220CD1E0008C91E0008C71E00087F
:10001000C71E0008C71E0008C71E00080000000019
:10002000000000000000000000000000C91E0008E1
:10003000C91E000800000000C91E0008C91E0008F3
:10004000C71E0008C71E0008C71E0008C71E0008FC
:10005000C71E0008C71E0008C71E0008C71E0008EC
:10006000C71E0008C71E0008C71E0008C71E0008DC
:10007000C71E0008C71E0008C71E0008C71E0008CC
:10008000C71E0008C71E0008C71E0008C71E0008BC
:10009000C71E0008C71E0008C71E0008C71E0008AC
:1000A000C71E0008C71E0008C71E0008C71E00089C
:1000B00089050008C71E0008C71E0008C71E0008E3
:1000C000C71E0008C71E0008C71E0008C71E00087C
:1000D000C71E0008C71E0008C5040008C71E000888
:1000E000C71E0008C71E0008C71E0008C71E00085C
:1000F000C71E0008C71E0008C71E0008C71E00084C
:10010000C71E0008C71E0008C71E0008C71E00083B
:10011000C71E0008C71E0008C71E0008C71E00082B
:10012000C71E0008C71E0008C71E0008C71E00081B
:10013000C71E0008C71E0008C71E0008C71E00080B
:10014000C71E0008C71E0008C71E0008C71E0008FB
:10015000C71E0008C71E0008C71E0008C71E0008EB
:10016000C71E0008C71E0008C71E0008C71E0008DB
:10017000C71E0008C71E0008C71E0008C71E0008CB
:10018000C71E0008C71E0008C71E0008C71E0008BB
:10019000C71E0008C71E0008C71E0008C71E0008AB
:1001A000C71E0008C71E0008C71E000808B5B0B16A
:1001B0000346027C2AB1826801328260C1688A42A9
:1001C00013D05A6801325A60D9688A4210D05A68EE
:1001D00099688A4214BF002201221A7408BD064B96
:1001E000064A5121064800F077FB00228260E8E7CA
:1001F00000225A60EBE700BF881F0008A420000817
:10020000901F000808B540B10022027482680132D4
:100210008260C1688A4206D008BD044B044A60214E
:10022000044800F059FB00228260F5E7881F0008AF
:1002300080200008901F000808B520B1002242600D
:100240008260027408BD034B034A1821034800F082
:1002500043FB00BF881F00086C200008901F0008A7
:1002600008B538B1027C5AB9426883689A4209D00D
:10027000002006E0044B054A2121054800F02CFB34
:10028000002008BD0120FCE7881F00085820000856
:10029000901F000810B558B1044649B142B1016041
:1002A000C260FFF7C9FF2046FFF7DAFF30B110BD8B
:1002B000054B064A2821064800F00EFB054B034A71
:1002C0002E21034800F008FBA81F00084820000862
:1002D000901F0008C41F000808B540B1034602681B
:1002E0002AB1406811541846FFF760FF08BD034B60
:1002F000034A6B21034800F0EFFA00BFE01F00083B
:10030000B8200008901F000870B548B10C4605469B
:1003100061B1066886B1FFF7A3FF98B1002070BDF8
:100320000C4B0D4A75210D4800F0D6FA0C4B0A4AC9
:1003300076210A4800F0D0FA0A4B074A772107488D
:1003400000F0CAFAAB68F35C23702846FFF75AFF47
:100350000120E4E7881F000894200008901F00088F
:10036000FC1F0008042000080278A2F16103DBB240
:10037000192B01D8203A02707047000010B44138A0
:100380000E4C23780E4AD25C413A02440D4981FB5F
:100390000201D017C0EBE1001A2101FB1020C0B20E
:1003A0004130C0B20133DBB223700D2B04D0034ABD
:1003B00013705DF8044B70470023F8E7A202002099
:1003C000C82000084FECC44E10B40F4C23780F4ADD
:1003D000D25C821A1A320E4981FB0201D017C0EB9F
:1003E000E1001A2101FB1020C0B24130C0B201333C
:1003F000DBB223700D2B04D0034A13705DF8044B5D
:1004000070470023F8E700BFA1020020C8200008C1
:100410004FECC44E10B582B0022001F059FC00240C
:1004200001940094234628220421022001F088FC34
:10043000204601F04DFC4FF4306001F095FC4FF484
:10044000186001F091FC40F6821001F08DFC40F63E
:10045000113001F089FC02B010BD000010B526205B
:1004600001F084FD0C23002202214FF0904001F0A6
:10047000E2FB0C2207214FF0904001F0FCFB104CF6
:100480004FF46141204601F0A5FC0921204601F00E
:10049000C7FC0021204601F0CCFC0C21204601F0D5
:1004A000D4FC0021204601F0CAFC0021204601F0C6
:1004B000D2FC204601F0E6FC204601F0D2FC10BD43
:1004C0000044004010B582B04FF04023D3F8003410
:1004D00013F0200F08D14FF04023D3F8003413F06D
:1004E000800F0FD102B010BD2021154801F0E5FCAE
:1004F0000028F0D0124801F0D8FCC1B21148FFF733
:10050000EBFEE8E780210E4801F0D7FC0028E9D097
:1005100000238DF807300C4C0DF107012046FFF742
:10052000F3FE9DF80710064801F0BBFC2046FFF7DC
:1005300097FE0028D6D0024801F0AEFCD2E700BFFB
:1005400000440040780200208C02002008B51C20E6
:1005500001F00CFD4FF4E06001F014FC4FF4FA617F
:100560004FF0804001F032FC4FF47A714FF0804040
:1005700001F02EFC4FF0804001F023FC02214FF0EF
:10058000804001F011FC08BD08B502214FF0804009
:1005900001F00EFC00B908BD084B19884FF08040EF
:1005A00001F016FC02214FF0804001F007FC2021F1
:1005B0004FF0904001F036FBEDE700BF080000204F
:1005C000F8B50138012813D80D461746002404E079
:1005D00031780B4801F04AFC0134BC420EDA2E1986
:1005E0002B5D0A2BF4D10D21054801F03FFCEFE70C
:1005F00000F094F9052303604FF0FF342046F8BD66
:100600000044004000B583B08DF807000DF10700ED
:10061000FFF7AAFE4FF400510E4801F000FBB0F5C1
:10062000005F10D09DF80700FFF7CEFE8DF80700A1
:100630009DF807100848FFF74FFE084801F027FC17
:1006400003B05DF804FB9DF80700FFF797FE8DF8F7
:100650000700EDE7000800488C020020004400403D
:1006600000B583B084460D4B93E8030000908DF8ED
:100670000410002307E01CF8031003F108026A4489
:1006800002F8081C0133032BF5DD684600F042F93F
:10069000034B188003B05DF804FB00BF182000086E
:1006A0000800002038B50146212818D0624B1B787D
:1006B000032B1CD0032B20D0032B24D0052B28D8B0
:1006C0005D4B00221A705C4B1B780A2B39D8DFE88F
:1006D00003F0353940474E626C788490A800564B41
:1006E0001B78032BE2D00133534A1370EBE74C29FC
:1006F000E0D1514B04221A70E5E75329DCD14E4B6F
:1007000005221A70DFE72129D8D14B4B0A221A7033
:10071000D9E7A1F13003DBB2092BD4D90024464B31
:100720001C70464800F06EFC234604E0444AD15C4D
:10073000444AD1540133032BF8DD02E00846FFF7A9
:1007400061FF38BD4048FFF7C7FD404801F09FFBFF
:10075000F7E73D48FFF7C0FD3C4801F098FBF0E7A4
:100760003948FFF7B9FD394801F091FBE9E7364810
:10077000FFF7B2FD002405E0324B195D3248FFF768
:10078000ABFD0134032CF7DD304801F080FB2A4B30
:1007900000221A70D5E70133274A13702A48FFF761
:1007A0009BFD2A4801F073FBCBE70133224A13700B
:1007B000244B19702448FFF78FFD244801F067FB94
:1007C000BFE701331C4A13701E4B59701E48FFF7D8
:1007D00083FD1E4801F05BFBB3E70133164A13703B
:1007E000184B99701848FFF777FD184801F04FFB38
:1007F000A7E70024104B1C70124DE9701248FFF758
:100800006BFD2846FFF72CFF234604E00D4AD15C20
:100810000B4AD1540133032BF8DD0C4801F037FBB0
:100820008FE7054B03221A700748FFF755FD07486D
:1008300001F02DFB85E700BFA0020020202000086A
:1008400000000020040000208C0200200044004032
:1008500000B583B04FF480721A491B48FFF71AFDA8
:100860004FF4807219491A48FFF714FDFFF7D2FDC3
:10087000FFF7F4FDFFF76AFE2023012211464FF037
:10088000904001F0D8F94FF400530022114611486E
:1008900001F0D1F920214FF0904001F0BDF90A4854
:1008A000FFF7DEFC0028FAD100238DF807300DF1A8
:1008B00007010548FFF728FD9DF80700FFF7F2FE46
:1008C000EDE700BF780000207802002078010020CA
:1008D0008C020020000800481FB514461A46094B38
:1008E0001B680546D8684CB1074B0091CDE901342F
:1008F00006492B4600F018F800F0D8FC044B1C46C3
:10090000F3E700BF0C000020D5200008E22000081B
:10091000102100080A22002100F0FEBB014B1868DC
:10092000704700BF0C0000200EB403B5014603ABB6
:10093000054853F8042B0068019300F031F802B029
:100940005DF804EB03B070470C0000209368013B96
:10095000002B10B4936008DA9469A34201DB0A29E2
:1009600003D15DF8044B00F0E1BB1368581C106024
:10097000197008465DF8044B7047F8B506460F46F7
:100980001446D518AC4201D1002007E014F8011B31
:100990003A463046FFF7DAFF431CF3D1F8BD0000BA
:1009A0002DE9F04F0D469DB014469846064618B105
:1009B00083690BB900F09CFD894B9D421BD1756882
:1009C0006B6ED90705D4AB899A0502D4A86D00F0E7
:1009D0002DFEAB891B0701D52B69EBB929463046A3
:1009E00000F0F6FBC0B16B6EDC070ED54FF0FF30A8
:1009F0001DB0BDE8F08F7B4B9D4201D1B568DFE7AC
:100A0000794B9D4208BFF568DAE7AB899805EDD4CC
:100A1000A86D00F00CFEE9E70023099320238DF870
:100A20002930CDF80C803023DFF8C0818DF82A30D2
:100A30004FF0010923469A4613F8012B0AB1252AE3
:100A4000F9D1BAEB040B0BD05B462246294630465F
:100A5000FFF793FF013000F0AA80099A5A440992E7
:100A60009AF80030002B00F0A28000234FF0FF32F4
:100A7000CDE905230AF1010A049307938DF8533059
:100A80001A935446052214F8011B584800F038FE0A
:100A9000049AD8B9D10644BF20238DF853301307E8
:100AA00044BF2B238DF853309AF800302A2B15D0F1
:100AB000079A544600204FF00A0C214611F8013BDA
:100AC000303B092B4ED9B0B1079214E0A0EB0803DC
:100AD00009FA03F313430493A246D2E7039B191DBB
:100AE0001B680391002BBBBF5B4242F002020793DD
:100AF0000793B8BF049223782E2B0CD163782A2B4E
:100B000035D1039B1A1D1B680392002BB8BF4FF011
:100B1000FF3302340593DFF8E4A021780322504626
:100B200000F0EEFD40B14023A0EB0A0003FA00F014
:100B3000049B03430134049314F8011B2C488DF8E3
:100B40002810062200F0DCFD00283FD0294B1BBBFB
:100B5000039B073323F0070308330393099B3B44AC
:100B6000099367E70CFB02320C460120A5E700233E
:100B70000134059319464FF00A0C204610F8012B5A
:100B8000303A092A03D9002BC5D00591C3E70CFBE5
:100B9000012104460123F0E703AB00932A46164BDC
:100BA00004A93046AFF300800746781CD6D16B6E9F
:100BB000D90705D4AB899A0502D4A86D00F037FD9A
:100BC000AB895B063FF512AF099811E703AB0093C1
:100BD0002A46094B04A9304600F080F8E4E700BF3C
:100BE0006C2200088C2200084C2200081821000802
:100BF00022210008000000007B0900081E210008D7
:100C00002DE9F047164699468A680B69DDF8208081
:100C10009342B8BF1346336091F8432007460C4611
:100C20000AB1013333602368990642BF3368023347
:100C30003360256815F0060506D104F1190AE3684A
:100C400032689B1AAB4226DC94F84320131E2268BC
:100C500018BF012392062BD404F1430249463846BB
:100C6000C04701301ED02368E568326803F00603F0
:100C7000042B08BFAD1AA36822690CBF25EAE575ED
:100C800000259342C4BF9B1AED1800261A34B542C2
:100C90001AD1002008E00123524649463846C04791
:100CA000013003D14FF0FF30BDE8F0870135C6E7D2
:100CB000E1185A1C302081F84300224494F8451072
:100CC00082F843100233C7E70123224649463846DB
:100CD000C0470130E6D00136D9E700002DE9FF47D3
:100CE0000F7E0C9D782F914680460C469A4601F166
:100CF000430207D8622F0AD8002F00F0D880582F5F
:100D000000F0A38004F1420584F842703AE0A7F1B4
:100D10006303152BF6D801A151F823F0750D0008D7
:100D2000890D0008050D0008050D0008050D0008D7
:100D3000050D0008890D0008050D0008050D0008C7
:100D4000050D0008050D0008950E0008B90D0008F6
:100D5000770E0008050D0008050D0008B70E000805
:100D6000050D0008B90D0008050D0008050D000867
:100D70007F0E00082B681A1D1B682A6004F14205CB
:100D800084F842300123A3E020682968060601F1B7
:100D900004030AD50E682B60002E03DA2D23764259
:100DA00084F843305E480A2319E00E682B6010F087
:100DB000400F18BF36B2EFE72B682068191D296075
:100DC000010601D51E6802E04606FBD51E88544880
:100DD0006F2F0CBF08230A23002184F84310656895
:100DE000A560002DA2BF216821F0040121600EB989
:100DF000002D4DD01546B6FBF3F103FB1167C75D1F
:100E000005F8017D3746BB420E46F4D9082B0BD1BD
:100E10002368DE0708D5236961689942DEBF302365
:100E200005F8013C05F1FF35521B2261CDF800A009
:100E30004B4603AA21464046FFF7E2FE01304CD163
:100E40004FF0FF3004B0BDE8F087354881F84570B9
:100E50002968236851F8046B29601D0614D5DF0743
:100E600044BF43F0200323601EB9236823F020030E
:100E700023601023B0E7236843F020032360782326
:100E8000284884F84530E3E7590648BFB6B2E6E79C
:100E90001546BBE72B6826686169181D2860350672
:100EA0001B6801D5196002E07006FBD5198000238C
:100EB00023611546BAE72B681A1D2A601D6862680F
:100EC0000021284600F01CFC08B1401B60606368EC
:100ED0002361002384F84330A8E723692A46494662
:100EE0004046D0470130ABD023689B0713D4E0685D
:100EF000039B9842B8BF1846A4E7012332464946EF
:100F00004046D04701309BD00135E36803995B1A16
:100F1000AB42F2DCEBE7002504F11906F5E700BF70
:100F2000292100083A21000870B50E46054618B17F
:100F300083690BB900F0DCFAAB69AC6813B92846D9
:100F400000F0D6FA2C4B9C4220D16C68636EDB0714
:100F500005D4A389980502D4A06D00F067FBA3898E
:100F600019071DD52369DBB1013EA36816F8011FDF
:100F7000013BA36039BB002B38DA22460A21284600
:100F800000F0D4F8013011D00A2511E01B4B9C422F
:100F900001D1AC68DAE71A4B9C4208BFEC68D5E790
:100FA0002146284600F014F90028DDD04FF0FF3527
:100FB000636EDA0705D4A3899B0502D4A06D00F007
:100FC00036FB284670BD002B04DAA2699A4206DC83
:100FD0000A2904D023685A1C22601970C5E72246EA
:100FE000284600F0A3F80130BFD1DFE723680A25C7
:100FF0005A1C22601D70DBE76C2200088C2200085E
:101000004C220008024B01461868FFF78DBF00BF55
:101010000C000020012B2DE9F04701D0242B06D92C
:10102000FFF77CFC162303600020BDE8F087DFF8A3
:10103000E4C00D462E4615F8014B14F80C7017F05D
:101040000807F7D12D2C32D12C780127B51C002BA5
:101050005BD0102B09D1302C07D12C7804F0DF04A1
:10106000582C4DD16C781023023507F1004808F157
:10107000FF384FF0000CB8FBF3F9664603FB198A02
:10108000A4F1300EBEF1090F16D87446A34224DD38
:10109000BCF1000F1EDBB1451CD301D1A24519DB09
:1010A00006FB03464FF0010C15F8014BE8E72B2C2B
:1010B00004BF2C78B51CCAE7A4F1410EBEF1190F8C
:1010C00001D8373CE2E7A4F1610EBEF1190F04D854
:1010D000573CDBE74FF0FF3CE6E7BCF1000F05DAD9
:1010E00022230360464642B930469EE707B1764266
:1010F000002AF9D0BCF1000F00D0691E1160F3E79F
:101100003024002BB1D10823AFE7302CA5D00A231F
:10111000ABE700BF4C21000813460A4601460248CF
:101120000068FFF777BF00BF0C000020F8B50E463F
:101130001446054618B183690BB900F0D9F9214B63
:101140009C422BD16C68A369A360A3891A072FD591
:1011500023696BB323692068C01A6369F6B28342BE
:10116000374604DC2146284600F02EF930BBA36840
:10117000013BA36023685A1C22601E706369013022
:10118000834204D0A389DB0706D50A2E04D1214669
:10119000284600F019F988B93846F8BD0A4B9C4238
:1011A00001D1AC68CFE7094B9C4208BFEC68CAE7A5
:1011B0002146284600F00CF80028CBD04FF0FF372E
:1011C000EAE700BF6C2200088C2200084C220008CD
:1011D000324B70B51D6806460C4625B1AB6913B994
:1011E000284600F085F92E4B9C420FD16C68A389EC
:1011F000B4F90C2019072CD4DD0611D4092333606F
:1012000042F04003A3814FF0FF303EE0254B9C426B
:1012100001D1AC68EBE7244B9C4208BFEC68E6E7E1
:10122000580712D5616B41B104F14403994202D0D1
:10123000304600F0BDFA00236363A38923F0240342
:10124000A3810023636023692360A38943F008031B
:10125000A38123694BB9A38903F42073B3F5007FFD
:1012600003D02146304600F009FAA089B4F90C20D9
:1012700010F001030AD00023A36063695B42A361FD
:10128000236943B910F08000BAD170BD810758BFFF
:101290006369A360F4E70020F7E700BF0C000020BB
:1012A0006C2200088C2200084C22000808B5062099
:1012B00000F096FB012000F0ADFC00008A892DE9CA
:1012C000F041054610070C4658D44B68002B05DC4E
:1012D0000B6C002B02DC0020BDE8F081E66A002EDA
:1012E000F9D0002312F480522F682B6032D0606D49
:1012F000A3895A0705D56368C01A636B0BB1236CC9
:10130000C01A00230246E66A216A2846B047431CF9
:10131000A38906D129681D292CD82A4ACA40D60794
:1013200028D500226260D9042269226004D5421CBB
:1013300001D12B6803B96065616B2F600029CAD0A9
:1013400004F14403994202D0284600F031FA00200B
:101350006063C1E7216A01232846B047411CC7D119
:101360002B68002BC4D01D2B01D0162B01D12F6070
:10137000B1E7A38943F04003A381ADE70F69002FD4
:10138000A9D093070E6808BF4B690F6018BF0023F0
:10139000A6EB07088B60B8F1000F9CDD216AA66AF6
:1013A00043463A462846B047002806DCA38943F066
:1013B0004003A3814FF0FF308EE70744A8EB0008FD
:1013C000E9E700BF0100402038B50B6905460C462F
:1013D00013B90025284638BD18B183690BB900F050
:1013E00087F8144B9C421BD16C68B4F90C30002B6D
:1013F000EFD0626ED00704D4990502D4A06D00F03E
:1014000015F928462146FFF759FF636EDA070546AE
:10141000E0D4A3899B05DDD4A06D00F008F9D9E7DD
:10142000054B9C4201D1AC68DFE7044B9C4208BFEE
:10143000EC68DAE76C2200088C2200084C220008D5
:10144000002310B50446C0E90033C0E904338360CB
:1014500081814366C2818361194608225C3000F0B5
:101460009FF9054B6362054BA362054BE362054B95
:101470002462236310BD00BF191A00083B1A00083C
:10148000731A0008971A0008014900F0AFB800BFAE
:10149000C913000870B568224D1E55430E4605F16C
:1014A000740100F0F1F9044640B10021C0E90016D2
:1014B0000C30A06005F1680200F072F9204670BDA2
:1014C000014800F0B3B800BFA4020020014800F0BA
:1014D000AEB800BFA4020020014800F0A7B800BFCA
:1014E000A5020020014800F0A2B800BFA50200201C
:1014F00010B50446FFF7F0FFA3691BB1BDE810402B
:10150000FFF7F0BFC4E912332365134B134A1B687E
:10151000A262A34204BF0123A361204600F020F889
:101520006060204600F01CF8A060204600F018F82B
:101530000022E06004216068FFF782FFA0680122BA
:101540000921FFF77DFFE06802221221FFF778FFF3
:101550000123A361D2E700BF142100088914000809
:10156000F8B50746FFF7ACFF1E4B1E68B36913B909
:101570003046FFF7BDFF4836D6E90134013B03D5BD
:1015800033680BB33668F7E7B4F90C50D5B9164B8E
:10159000E36004F15800656600F047F8FFF796FF36
:1015A000C4E90155C4E904552560A561082229460E
:1015B00004F15C0000F0F4F8C4E90D55C4E91255DB
:1015C0002046F8BD6834D9E704213846FFF762FFAA
:1015D000044630600028D5D1FFF778FF0C233B602C
:1015E000EEE700BF142100080100FFFF2DE9F843DA
:1015F0000646884600F148040027D4E90195B9F170
:10160000010905D52468002CF7D13846BDE8F883D8
:10161000AB89012B07D9B5F90E30013303D0294628
:101620003046C04707436835E9E770477047704761
:1016300070B50E46B1F90E10002996B014461D463D
:1016400008DAB6F90C3000222A601A0610D44FF4DA
:1016500080630EE06A4600F045FA0028F1DB019A4B
:1016600002F47042A2F500535A425A412A60EEE752
:1016700040230020236016B070BD00008B8973B535
:101680009D0706460C4607D504F1470323602361F6
:101690000123636102B070BD01AB6A46FFF7C8FF6A
:1016A00000990546304600F0EFF848B9B4F90C301F
:1016B0009A05EFD423F0030343F00203A381E3E789
:1016C0000D4BB362A389206043F08003A381009B8C
:1016D0006361019B20615BB1B4F90E10304600F0EC
:1016E00013FA28B1A38923F0030343F00103A38174
:1016F000A0890543A581CDE78914000800000000FA
:1017000001F0FF01102A2BDB10F0070F08D010F8B2
:10171000013B013A8B422DD010F0070F42B3F6D1B6
:10172000F0B441EA012141EA014122F007047FF0CF
:1017300000070023F0E80256083C85EA010586EA26
:10174000010685FA47F5A3FA87F586FA47F6A5FA62
:1017500087F68EB9EED1F0BC01F0FF0102F007026E
:1017600032B110F8013B013A83EA010313B1F8D119
:101770000020704701387047002D06BF35460338FA
:10178000073815F0010F07D1013015F4807F02BF33
:10179000013015F4C03F0130F0BC0138704700BF84
:1017A00002440346934200D1704703F8011BF9E756
:1017B00037B5002944D051F8043C0190002BA1F129
:1017C0000404B8BFE41800F0C1F91E4A0198136878
:1017D00033B96360146003B0BDE8304000F0BCB9B9
:1017E000A34208D9256861198B4201BF19685B685B
:1017F00049192160EDE71A465B680BB1A342FAD99B
:1018000011685518A5420BD1246821445418A342ED
:101810001160E0D11C685B68536021441160DAE715
:1018200002D90C230360D6E7256861198B4204BFF7
:1018300019685B68636004BF491921605460CAE796
:1018400003B030BDA802002070B50E4E0C463168C2
:10185000054611B900F08CF830602146284600F0AA
:1018600087F8431C0AD0C41C24F00304A04207D00C
:10187000211A284600F07CF8013001D14FF0FF34E6
:10188000204670BDAC0200202DE9F041CD1C25F0B2
:10189000030508350C2D38BF0C25002D074601DB4C
:1018A000A94205D90C233B6000263046BDE8F081F3
:1018B0002E4E00F04BF933681C4634BB294638469F
:1018C000FFF7C2FF431C04464DD134682646002E64
:1018D00040D123683146384604EB030800F048F84D
:1018E00080453AD1216803356D1A25F00305083586
:1018F0000C2D38BF0C2529463846FFF7A5FF0130CF
:101900002BD023682B4423600EE02268521B1ED488
:101910000B2A16D96119A342256018BF5960636864
:1019200008BF316062514B60384604F10B0600F08D
:1019300013F926F00706231DF21AB6D09B1BA350FD
:10194000B3E76268A3420CBF32605A60ECE72346FB
:101950006468B2E734467668B9E70C233B603846E2
:1019600000F0FAF8A1E72560DEE700BFA80200203A
:1019700038B5064D0023044608462B6000F03CF9BC
:10198000431C02D12B6803B1236038BDB002002094
:101990001F2938B504460D4604D9162303604FF0BD
:1019A000FF3038BD426C12B152F821304BB920469D
:1019B00000F030F82A4601462046BDE8384000F0E5
:1019C00017B8012B0AD0591C03D11623036001203C
:1019D000E7E7002442F82540284698470020E0E742
:1019E000024B01461868FFF7D3BF00BF0C00002070
:1019F00038B5074D00230446084611462B6000F019
:101A0000E3F8431C02D12B6803B1236038BD00BF4B
:101A1000B002002000F0C8B810B50C46B1F90E10A5
:101A200000F0A0F80028ABBF636DA3891B1823F456
:101A30008053ACBF6365A38110BD2DE9F0411F4603
:101A40008B89DB0505460C46164605D5B1F90E1007
:101A50000223002200F068F8A389B4F90E1023F4E1
:101A60008053A38132463B462846BDE8F04100F052
:101A700017B810B50C46B1F90E1000F055F8431C1C
:101A8000A38915BF606523F4805343F48053A38179
:101A900018BFA38110BDB1F90E1000F013B80000FB
:101AA00038B5074D04460846114600222A601A46FA
:101AB000FEF786FD431C02D12B6803B1236038BDBD
:101AC000B002002038B5064D0023044608462B60BE
:101AD00000F05AF8431C02D12B6803B1236038BDD3
:101AE000B002002038B5074D0023044608461146D1
:101AF0002B6000F051F8431C02D12B6803B1236026
:101B000038BD00BFB002002038B5064D00230446A2
:101B100008462B6000F050F8431C02D12B6803B13B
:101B2000236038BDB002002038B5074D0446084692
:101B3000114600222A601A4600F04EF8431C02D1DA
:101B40002B6803B1236038BDB00200200148FFF7C5
:101B50006DBD00BFA30200200148FFF768BD00BFB4
:101B6000A302002038B5074D04460846114600225E
:101B70002A601A4600F038F8431C02D12B6803B1E2
:101B8000236038BDB0020020024B58221A604FF08B
:101B9000FF307047B0020020024B58221A604FF00D
:101BA000FF307047B0020020024B58221A604FF0FD
:101BB000FF307047B0020020024B58221A6000200C
:101BC000704700BFB0020020024B58221A604FF04D
:101BD000FF307047B0020020024B58221A604FF0CD
:101BE000FF307047B0020020024B58221A604FF0BD
:101BF000FF307047B0020020044A05491368002BEB
:101C000008BF0B461844106018467047B402002005
:101C1000B8020020FEE700BF090481617047006937
:101C200008407047436901EA030221EA030141EADF
:101C30000241816170472DE9F0410568C4680026C2
:101C40004FF0030E43FA06F7FF070DD577000EFAA3
:101C500007FC01FA07F825EA0C0524EA0C0402FA4D
:101C600007F748EA05053C430136102EEAD1056026
:101C7000C460BDE8F081F0B5076A466A00234FF002
:101C80000F0C42FA03F4E50707D59D000CFA05F4A2
:101C900027EA040701FA05F52F430133082BF0D199
:101CA00000234FF00F0C03F1080442FA04F4E40798
:101CB00007D59C000CFA04F526EA050601FA04F49F
:101CC00026430133082BEED107624662F0BD0000C7
:101CD000062831D8DFE800F0040A0F141921290082
:101CE000164A136843F0807313607047134A1368F1
:101CF00043F48033F8E7114A136843F48073F3E741
:101D00000E4A136843F00103EEE70C4AD2F8903014
:101D100043F00103C2F890307047084AD2F894307B
:101D200043F00103C2F894307047044AD2F8983067
:101D300043F00103C2F89830704700BF0010024022
:101D400010B5039C0139640644EA01142043029C47
:101D500040EA4450034343EA0222024B42F08072BD
:101D6000DA6010BD00100240430903F1804303F51F
:101D7000043300F01F001968012202FA00F0084342
:101D800018607047430903F1804303F504330122CF
:101D9000196800F01F0002FA00F0014319601A6888
:101DA00022EA000018607047C3681943C160704799
:101DB00003690B4214BF012000207047C943016131
:101DC0007047036843F00103036070478162704706
:101DD000C16270470E4A904210B54FEA510306D1D6
:101DE0000C4A12681A44B2FBF1F2C2600FE00A4CCE
:101DF0000A4AA0421268F5D1B2FBF1F401FB1422A9
:101E000003EB0222B2FBF1F303EB0423C36010BD2A
:101E10000038014074000020008000407000002065
:101E2000036808290CBF23F4805343F480530360F4
:101E30007047436823F44053194341607047036877
:101E400023F4C063194301607047036823F00C0357
:101E5000194301607047836823F44073194381601C
:101E60007047036843F001030360704713B50446ED
:101E7000019100F01EF80199204602B0BDE8104023
:101E800000F00FB8036843F0200303607047036855
:101E900043F0800303607047036823F0800303600E
:101EA0007047C1F3080181627047406AC0F30800BF
:101EB0007047C3691B06FCD57047C3690B4214BF4A
:101EC000012000207047FEE77047000038B51D4A2A
:101ED0001D4B1E498B4220D31D4A0021934221D322
:101EE0004FF0E0231B4CD3F8142D1B4D42F400722D
:101EF000C3F8142DD3F8882D42F47002C3F8882D4E
:101F0000AC4212D3154C164DAC4212D3FEF7A0FCD6
:101F1000144C154DAC4210D338BD52F8040B43F8A5
:101F2000040BD7E743F8041BD8E754F8043B984761
:101F3000E6E754F8043B9847E6E754F8043B984733
:101F4000E8E700BFAC220008000000207800002075
:101F5000B8020020AC220008AC220008AC22000825
:101F6000AC220008AC220008AC220008054B420954
:101F700003EB820300F01F00012202FA00F0186058
:101F8000704700BF00E100E07073745F6D65000092
:101F9000536F757263652F63697263756C6172420A
:101FA00075666665722E68007073745F6D652026B5
:101FB000262070635F6275666620262620755F7333
:101FC000697A6500666E5F6369726342756666452D
:101FD0006D707479287073745F6D6529000000005E
:101FE0007073745F6D65202626207073745F6D6555
:101FF0002D3E70635F6275666665720070635F6434
:10200000617461007073745F6D652D3E70635F6213
:1020100075666665720000003030303000000000E8
:10202000496E76616C696420706572696F642C20FA
:102030006368616E6765206E6F7420636F6D6D6994
:102040007465642E00000000666E5F63697263420F
:10205000756666496E697400666E5F636972634295
:10206000756666456D70747900000000666E5F638A
:10207000697263427566665265736574000000009C
:10208000666E5F72657472656174506F696E7465B7
:1020900072000000666E5F63697263427566664730
:1020A00065740000666E5F616476616E6365506F93
:1020B000696E746572000000666E5F6369726342E8
:1020C000756666507574000054454E4E4553534531
:1020D00045544543482C2066756E6374696F6E3AAB
:1020E0002000617373657274696F6E2022257322FC
:1020F000206661696C65643A2066696C65202225FA
:1021000073222C206C696E65202564257325730A63
:102110000000000010000020232D302B2000686CF0
:102120004C006566674546470030313233343536FA
:102130003738394142434445460030313233343533
:1021400036373839616263646566000020202020DC
:102150002020202020282828282820202020202057
:102160002020202020202020202020208810101037
:10217000101010101010101010101010040404048F
:102180000404040404041010101010101041414104
:10219000414141010101010101010101010101016F
:1021A0000101010101010110101010101042424202
:1021B000424242020202020202020202020202023F
:1021C00002020202020202101010102000000000A1
:1021D00000000000000000000000000000000000FF
:1021E00000000000000000000000000000000000EF
:1021F00000000000000000000000000000000000DF
:1022000000000000000000000000000000000000CE
:1022100000000000000000000000000000000000BE
:1022200000000000000000000000000000000000AE
:10223000000000000000000000000000000000009E
:10224000000000000000000000000000000000008E
:10225000000000000000000000000000000000007E
:10226000000000000000000000000000000000006E
:10227000000000000000000000000000000000005E
:10228000000000000000000000000000000000004E
:10229000000000000000000000000000000000003E
:0C22A00000000000000000000000000032
:1022AC003130303031303030E80300001000002085
:1022BC00000000006C2200088C2200084C22000850
:1022CC000000000000000000000000000000000002
:1022DC0000000000000000000000000000000000F2
:1022EC0000000000000000000000000000000000E2
:1022FC0000000000000000000000000000000000D2
:10230C0000000000000000000000000000000000C1
:08231C0000093D0000093D002D
:0400000508001ECD04
:00000001FF
