:020000040800F2
:1000000000800220891A0008851A0008831A000857
:10001000831A0008831A0008831A000800000000F1
:10002000000000000000000000000000851A000829
:10003000851A000800000000851A0008851A0008CB
:10004000831A0008831A0008831A0008831A00081C
:10005000831A0008831A0008831A0008831A00080C
:10006000831A0008831A0008831A0008831A0008FC
:10007000831A0008831A0008831A0008831A0008EC
:10008000831A0008831A0008831A0008831A0008DC
:10009000831A0008831A0008831A0008831A0008CC
:1000A000831A0008831A0008831A0008831A0008BC
:1000B000831A0008831A0008831A0008831A0008AC
:1000C000831A0008831A0008831A0008831A00089C
:1000D000831A0008831A0008831A0008831A00088C
:1000E000831A0008831A0008831A0008831A00087C
:1000F000831A0008831A0008831A0008831A00086C
:10010000831A0008831A0008831A0008831A00085B
:10011000831A0008831A0008831A0008831A00084B
:10012000831A0008831A0008831A0008831A00083B
:10013000831A0008831A0008831A0008831A00082B
:10014000831A0008831A0008831A0008831A00081B
:10015000831A0008831A0008831A0008831A00080B
:10016000831A0008831A0008831A0008831A0008FB
:10017000831A0008831A0008831A0008831A0008EB
:10018000831A0008831A0008831A0008831A0008DB
:10019000831A0008831A0008831A0008831A0008CB
:1001A000831A0008831A0008831A000808B5B0B142
:1001B0000346027C2AB1826801328260C1688A42A9
:1001C00013D05A6801325A60D9688A4210D05A68EE
:1001D00099688A4214BF002201221A7408BD064B96
:1001E000064A5021064800F047FA00228260E8E7FC
:1001F00000225A60EBE700BF281B00084C1C0008D7
:10020000301B000808B540B1002202748268013238
:100210008260C1688A4206D008BD044B044A5F214F
:10022000044800F029FA00228260F5E7281B000844
:10023000281C0008301B000810B582B0022001F015
:1002400027FB002401940094234614220421022059
:1002500001F056FB204601F01BFB4FF4306001F02B
:1002600063FB4FF4186001F05FFB40F6821001F071
:100270005BFB40F6113001F057FB02B010BD0000EF
:1002800010B50C23002202214FF0904001F0B3FA88
:100290000C2207214FF0904001F0CDFA0F4C4FF4A3
:1002A0006141204601F076FB0921204601F098FBD0
:1002B0000021204601F09DFB0C21204601F0A5FB0A
:1002C0004FF4C061204601F09AFB0021204601F066
:1002D000A2FB204601F0A5FB10BD00BF004400407A
:1002E00008B54FF4E06001F02DFBC8214FF08040CD
:1002F00001F04CFB42F210714FF0804001F048FBDE
:100300004FF0804001F03DFB02214FF0804001F0B2
:100310002BFB08BD08B520B1002242608260027448
:1003200008BD034B034A1721034800F0A5F900BF9D
:10033000281B0008141C0008301B000808B538B141
:10034000027C5AB9426883689A4209D0002006E0CC
:10035000044B054A2021054800F08EF9002008BD15
:100360000120FCE7281B0008001C0008301B0008C7
:1003700010B558B1044649B142B10160C260FFF7FF
:10038000C9FF2046FFF7DAFF30B110BD054B064A22
:100390002721064800F070F9054B034A2D21034838
:1003A00000F06AF9481B0008F01B0008301B000829
:1003B000641B000808B540B1034602682AB14068D2
:1003C00011541846FFF7F2FE08BD034B034A6A2199
:1003D000034800F051F900BF801B0008601C0008B2
:1003E000301B000870B548B10C46054661B106687F
:1003F00086B1FFF7A3FF98B1002070BD0C4B0D4AEA
:1004000074210D4800F038F90C4B0A4A75210A484E
:1004100000F032F90A4B074A7621074800F02CF920
:10042000AB68F35C23702846FFF7ECFE0120E4E79D
:10043000281B00083C1C0008301B00089C1B0008FF
:10044000A41B0008F8B50138012813D80D4617463B
:10045000002404E031780B4801F0E8FA0134BC4292
:100460000EDA2E192B5D0A2BF4D10D21054801F06F
:10047000DDFAEFE700F01EF9052303604FF0FF34CB
:100480002046F8BD004400400278A2F16103DBB2CF
:10049000192B01D8203A02707047000010B441387F
:1004A0000E4C23780E4AD25C413A02440D4981FB3E
:1004B0000201D017C0EBE1001A2101FB1020C0B2ED
:1004C0004130C0B20133DBB223700D2B04D0034A9C
:1004D00013705DF8044B70470023F8E7810100209A
:1004E000701C00084FECC44E10B40F4C23780F4A18
:1004F000D25C821A1A320E4981FB0201D017C0EB7E
:10050000E1001A2101FB1020C0B24130C0B201331A
:10051000DBB223700D2B04D0034A13705DF8044B3B
:1005200070470023F8E700BF80010020701C00081E
:100530004FECC44E00B583B04FF4807249494A482D
:10054000FFF716FF00248DF80740FFF775FEFFF751
:1005500097FEFFF7C5FE2023012211464FF0904081
:1005600001F049F94FF40053224621463F4801F07B
:1005700042F920214FF0904001F02EF91EE03C4856
:1005800001F060FAC1B23848FFF714FF1CE04FF4E5
:100590000051364801F023F998B39DF80700FFF7A2
:1005A0007DFF8DF807008021314801F064FA90BB8F
:1005B00002214FF0804001F0DBF990BB20212C4854
:1005C00001F059FA0028DAD12748FFF7B7FE0028D2
:1005D000EED10DF107012448FFF704FF0DF10700EC
:1005E000FFF752FF4FF40051204801F0F8F8B0F542
:1005F000005FCCD09DF80700FFF776FF8DF807006D
:10060000D1E71C4800F05CFB9DF80700FFF746FFB0
:100610008DF80700C7E79DF80710154801F006FAA6
:10062000C6E702214FF0804001F0A8F94FF40051D5
:100630000E4801F0D4F8B0F5005F0BD040F6C411BD
:100640004FF0804001F0A4F920214FF0904001F0DC
:10065000C9F8B3E742F210714FF0804001F098F909
:10066000F2E700BF6C0000206C0100200008004889
:1006700000440040B81B00081FB514461A46094B39
:100680001B680546D8684CB1074B0091CDE9013491
:1006900006492B4600F014F800F0EAFB044B1C4618
:1006A000F3E700BF000000207D1C00088A1C000842
:1006B000B81C0008014B1868704700BF00000020FC
:1006C0000EB403B5014603AB054853F8042B00688C
:1006D000019300F031F802B05DF804EB03B070470D
:1006E000000000209368013B002B10B4936008DAEF
:1006F0009469A34201DB0A2903D15DF8044B00F0A1
:10070000F7BA1368581C1060197008465DF8044B5E
:100710007047F8B506460F461446D518AC4201D1CD
:10072000002007E014F8011B3A463046FFF7DAFFD5
:10073000431CF3D1F8BD00002DE9F04F0D469DB0EC
:1007400014469846064618B183690BB900F0B2FC0E
:10075000894B9D421BD175686B6ED90705D4AB8957
:100760009A0502D4A86D00F043FDAB891B0701D5A3
:100770002B69EBB92946304600F00CFBC0B16B6E1B
:10078000DC070ED54FF0FF301DB0BDE8F08F7B4B7E
:100790009D4201D1B568DFE7794B9D4208BFF568FE
:1007A000DAE7AB899805EDD4A86D00F022FDE9E702
:1007B0000023099320238DF82930CDF80C803023B5
:1007C000DFF8C0818DF82A304FF0010923469A46A0
:1007D00013F8012B0AB1252AF9D1BAEB040B0BD07F
:1007E0005B46224629463046FFF793FF013000F072
:1007F000AA80099A5A4409929AF80030002B00F016
:10080000A28000234FF0FF32CDE905230AF1010A4F
:10081000049307938DF853301A935446052214F825
:10082000011B584800F04CFD049AD8B9D10644BFCA
:1008300020238DF85330130744BF2B238DF85330FA
:100840009AF800302A2B15D0079A544600204FF012
:100850000A0C214611F8013B303B092B4ED9B0B1AF
:10086000079214E0A0EB080309FA03F3134304937F
:10087000A246D2E7039B191D1B680391002BBBBF47
:100880005B4242F0020207930793B8BF04922378B9
:100890002E2B0CD163782A2B35D1039B1A1D1B6894
:1008A0000392002BB8BF4FF0FF3302340593DFF8FB
:1008B000E4A021780322504600F002FD40B140231D
:1008C000A0EB0A0003FA00F0049B034301340493F5
:1008D00014F8011B2C488DF82810062200F0F0FCBB
:1008E00000283FD0294B1BBB039B073323F0070392
:1008F00008330393099B3B44099367E70CFB0232DF
:100900000C460120A5E700230134059319464FF05A
:100910000A0C204610F8012B303A092A03D9002B83
:10092000C5D00591C3E70CFB012104460123F0E784
:1009300003AB00932A46164B04A93046AFF3008060
:100940000746781CD6D16B6ED90705D4AB899A05BA
:1009500002D4A86D00F04DFCAB895B063FF512AFE9
:10096000099811E703AB00932A46094B04A93046C6
:1009700000F080F8E4E700BF141D0008341D0008F3
:10098000F41C0008C01C0008CA1C0008000000007D
:1009900013070008C61C00082DE9F04716469946C3
:1009A0008A680B69DDF820809342B8BF1346336034
:1009B00091F8432007460C460AB10133336023689F
:1009C000990642BF336802333360256815F0060587
:1009D00006D104F1190AE36832689B1AAB4226DC9F
:1009E00094F84320131E226818BF012392062BD4CB
:1009F00004F1430249463846C04701301ED02368FF
:100A0000E568326803F00603042B08BFAD1AA3683B
:100A100022690CBF25EAE57500259342C4BF9B1AE5
:100A2000ED1800261A34B5421AD1002008E001233F
:100A3000524649463846C047013003D14FF0FF3097
:100A4000BDE8F0870135C6E7E1185A1C302081F86F
:100A50004300224494F8451082F843100233C7E75C
:100A60000123224649463846C0470130E6D00136C8
:100A7000D9E700002DE9FF470F7E0C9D782F9146A6
:100A800080460C469A4601F1430207D8622F0AD8E5
:100A9000002F00F0D880582F00F0A38004F1420509
:100AA00084F842703AE0A7F16303152BF6D801A150
:100AB00051F823F00D0B0008210B00089D0A0008D7
:100AC0009D0A00089D0A00089D0A0008210B0008E5
:100AD0009D0A00089D0A00089D0A00089D0A00085A
:100AE0002D0C0008510B00080F0C00089D0A00088F
:100AF0009D0A00084F0C00089D0A0008510B0008D1
:100B00009D0A00089D0A0008170C00082B681A1D92
:100B10001B682A6004F1420584F842300123A3E0F7
:100B200020682968060601F104030AD50E682B60C7
:100B3000002E03DA2D23764284F843305E480A23E0
:100B400019E00E682B6010F0400F18BF36B2EFE7C7
:100B50002B682068191D2960010601D51E6802E076
:100B60004606FBD51E8854486F2F0CBF08230A2366
:100B7000002184F843106568A560002DA2BF21689C
:100B800021F0040121600EB9002D4DD01546B6FBB1
:100B9000F3F103FB1167C75D05F8017D3746BB42E2
:100BA0000E46F4D9082B0BD12368DE0708D523693C
:100BB00061689942DEBF302305F8013C05F1FF353D
:100BC000521B2261CDF800A04B4603AA21464046A5
:100BD000FFF7E2FE01304CD14FF0FF3004B0BDE82A
:100BE000F087354881F845702968236851F8046B0F
:100BF00029601D0614D5DF0744BF43F0200323609E
:100C00001EB9236823F0200323601023B0E7236874
:100C100043F0200323607823284884F84530E3E735
:100C2000590648BFB6B2E6E71546BBE72B6826680B
:100C30006169181D286035061B6801D5196002E03E
:100C40007006FBD51980002323611546BAE72B688F
:100C50001A1D2A601D6862680021284600F030FBDA
:100C600008B1401B606063682361002384F843304F
:100C7000A8E723692A4649464046D0470130ABD011
:100C800023689B0713D4E068039B9842B8BF1846BB
:100C9000A4E70123324649464046D04701309BD065
:100CA0000135E36803995B1AAB42F2DCEBE7002500
:100CB00004F11906F5E700BFD11C0008E21C00088A
:100CC0000FB40A4B13B51C6824B1A36913B92046AD
:100CD00000F0F0F905AB049AA16801932046FFF7F4
:100CE0002BFD02B0BDE8104004B0704700000020AA
:100CF000F8B50E461446054618B183690BB900F0E5
:100D0000D9F9214B9C422BD16C68A369A360A389BC
:100D10001A072FD523696BB323692068C01A63694A
:100D2000F6B28342374604DC2146284600F02EF90D
:100D300030BBA368013BA36023685A1C22601E706D
:100D400063690130834204D0A389DB0706D50A2EEC
:100D500004D12146284600F019F988B93846F8BD73
:100D60000A4B9C4201D1AC68CFE7094B9C4208BFBB
:100D7000EC68CAE72146284600F00CF80028CBD0E2
:100D80004FF0FF37EAE700BF141D0008341D0008CC
:100D9000F41C0008324B70B51D6806460C4625B1A0
:100DA000AB6913B9284600F085F92E4B9C420FD150
:100DB0006C68A389B4F90C2019072CD4DD0611D472
:100DC0000923336042F04003A3814FF0FF303EE03F
:100DD000254B9C4201D1AC68EBE7244B9C4208BFF9
:100DE000EC68E6E7580712D5616B41B104F14403A2
:100DF000994202D0304600F0BBFA00236363A38916
:100E000023F02403A3810023636023692360A38963
:100E100043F00803A38123694BB9A38903F420732A
:100E2000B3F5007F03D02146304600F009FAA089CF
:100E3000B4F90C2010F001030AD00023A360636909
:100E40005B42A361236943B910F08000BAD170BD41
:100E5000810758BF6369A360F4E70020F7E700BF8C
:100E600000000020141D0008341D0008F41C0008B8
:100E700008B5062000F094FB012000F0ABFC000058
:100E80008A892DE9F041054610070C4658D44B6875
:100E9000002B05DC0B6C002B02DC0020BDE8F08190
:100EA000E66A002EF9D0002312F480522F682B60DE
:100EB00032D0606DA3895A0705D56368C01A636B89
:100EC0000BB1236CC01A00230246E66A216A284649
:100ED000B047431CA38906D129681D292CD82A4A6A
:100EE000CA40D60728D500226260D9042269226050
:100EF00004D5421C01D12B6803B96065616B2F607A
:100F00000029CAD004F14403994202D0284600F0D7
:100F10002FFA00206063C1E7216A01232846B04709
:100F2000411CC7D12B68002BC4D01D2B01D0162B20
:100F300001D12F60B1E7A38943F04003A381ADE75E
:100F40000F69002FA9D093070E6808BF4B690F6087
:100F500018BF0023A6EB07088B60B8F1000F9CDDDB
:100F6000216AA66A43463A462846B047002806DC6E
:100F7000A38943F04003A3814FF0FF308EE707447D
:100F8000A8EB0008E9E700BF0100402038B50B6975
:100F900005460C4613B90025284638BD18B18369AB
:100FA0000BB900F087F8144B9C421BD16C68B4F964
:100FB0000C30002BEFD0626ED00704D4990502D418
:100FC000A06D00F015F928462146FFF759FF636E22
:100FD000DA070546E0D4A3899B05DDD4A06D00F0B7
:100FE00008F9D9E7054B9C4201D1AC68DFE7044B17
:100FF0009C4208BFEC68DAE7141D0008341D0008A5
:10100000F41C0008002310B50446C0E90033C0E911
:101010000433836081814366C2818361194608225B
:101020005C3000F09DF9054B6362054BA362054BF4
:10103000E362054B2462236310BD00BFD91500088D
:10104000FB1500083316000857160008014900F088
:10105000AFB800BF8D0F000870B568224D1E554314
:101060000E4605F1740100F0EFF9044640B100218D
:10107000C0E900160C30A06005F1680200F070F9BC
:10108000204670BD014800F0B3B800BF83010020C6
:10109000014800F0AEB800BF83010020014800F015
:1010A000A7B800BF84010020014800F0A2B800BF2B
:1010B0008401002010B50446FFF7F0FFA3691BB1BF
:1010C000BDE81040FFF7F0BFC4E912332365134BAE
:1010D000134A1B68A262A34204BF0123A3612046F6
:1010E00000F020F86060204600F01CF8A060204668
:1010F00000F018F80022E06004216068FFF782FF2A
:10110000A06801220921FFF77DFFE0680222122179
:10111000FFF778FF0123A361D2E700BFBC1C0008E2
:101120004D100008F8B50746FFF7ACFF1E4B1E68D0
:10113000B36913B93046FFF7BDFF4836D6E901342D
:10114000013B03D533680BB33668F7E7B4F90C50AD
:10115000D5B9164BE36004F15800656600F047F816
:10116000FFF796FFC4E90155C4E904552560A56160
:101170000822294604F15C0000F0F2F8C4E90D559C
:10118000C4E912552046F8BD6834D9E70421384631
:10119000FFF762FF044630600028D5D1FFF778FFE3
:1011A0000C233B60EEE700BFBC1C00080100FFFF02
:1011B0002DE9F8430646884600F148040027D4E9A3
:1011C0000195B9F1010905D52468002CF7D13846FD
:1011D000BDE8F883AB89012B07D9B5F90E3001338F
:1011E00003D029463046C04707436835E9E77047D2
:1011F0007047704770B50E46B1F90E10002996B0D1
:1012000014461D4608DAB6F90C3000222A601A0688
:1012100010D44FF480630EE06A4600F043FA0028D1
:10122000F1DB019A02F47042A2F500535A425A418E
:101230002A60EEE740230020236016B070BD000056
:101240008B8973B59D0706460C4607D504F1470305
:10125000236023610123636102B070BD01AB6A4664
:10126000FFF7C8FF00990546304600F0EDF848B991
:10127000B4F90C309A05EFD423F0030343F00203D2
:10128000A381E3E70D4BB362A389206043F08003A1
:10129000A381009B6361019B20615BB1B4F90E10D7
:1012A000304600F011FA28B1A38923F0030343F07C
:1012B0000103A381A0890543A581CDE74D10000856
:1012C00001F0FF01102A2BDB10F0070F08D010F8F7
:1012D000013B013A8B422DD010F0070F42B3F6D1FB
:1012E000F0B441EA012141EA014122F007047FF014
:1012F00000070023F0E80256083C85EA010586EA6B
:10130000010685FA47F5A3FA87F586FA47F6A5FAA6
:1013100087F68EB9EED1F0BC01F0FF0102F00702B2
:1013200032B110F8013B013A83EA010313B1F8D15D
:101330000020704701387047002D06BF354603383E
:10134000073815F0010F07D1013015F4807F02BF77
:10135000013015F4C03F0130F0BC0138704700BFC8
:1013600002440346934200D1704703F8011BF9E79A
:1013700037B5002944D051F8043C0190002BA1F16D
:101380000404B8BFE41800F0C1F91E4A01981368BC
:1013900033B96360146003B0BDE8304000F0BCB9FD
:1013A000A34208D9256861198B4201BF19685B689F
:1013B00049192160EDE71A465B680BB1A342FAD9DF
:1013C00011685518A5420BD1246821445418A34232
:1013D0001160E0D11C685B68536021441160DAE75A
:1013E00002D90C230360D6E7256861198B4204BF3C
:1013F00019685B68636004BF491921605460CAE7DB
:1014000003B030BD8801002070B50E4E0C46316827
:10141000054611B900F08CF830602146284600F0EE
:1014200087F8431C0AD0C41C24F00304A04207D050
:10143000211A284600F07CF8013001D14FF0FF342A
:10144000204670BD8C0100202DE9F041CD1C25F017
:10145000030508350C2D38BF0C25002D074601DB90
:10146000A94205D90C233B6000263046BDE8F08137
:101470002E4E00F04BF933681C4634BB29463846E3
:10148000FFF7C2FF431C04464DD134682646002EA8
:1014900040D123683146384604EB030800F048F891
:1014A00080453AD1216803356D1A25F003050835CA
:1014B0000C2D38BF0C2529463846FFF7A5FF013013
:1014C0002BD023682B4423600EE02268521B1ED4CD
:1014D0000B2A16D96119A342256018BF59606368A9
:1014E00008BF316062514B60384604F10B0600F0D2
:1014F00013F926F00706231DF21AB6D09B1BA35042
:10150000B3E76268A3420CBF32605A60ECE723463F
:101510006468B2E734467668B9E70C233B60384626
:1015200000F0FAF8A1E72560DEE700BF880100209F
:1015300038B5064D0023044608462B6000F03CF900
:10154000431C02D12B6803B1236038BD90010020F9
:101550001F2938B504460D4604D9162303604FF001
:10156000FF3038BD426C12B152F821304BB92046E1
:1015700000F030F82A4601462046BDE8384000F029
:1015800017B8012B0AD0591C03D116230360012080
:10159000E7E7002442F82540284698470020E0E786
:1015A000024B01461868FFF7D3BF00BF00000020C0
:1015B00038B5074D00230446084611462B6000F05D
:1015C000E3F8431C02D12B6803B1236038BD00BF90
:1015D0009001002000F0C8B810B50C46B1F90E100B
:1015E00000F0A0F80028ABBF636DA3891B1823F49B
:1015F0008053ACBF6365A38110BD2DE9F0411F4648
:101600008B89DB0505460C46164605D5B1F90E104B
:101610000223002200F068F8A389B4F90E1023F425
:101620008053A38132463B462846BDE8F04100F096
:1016300017B810B50C46B1F90E1000F055F8431C60
:10164000A38915BF606523F4805343F48053A381BD
:1016500018BFA38110BDB1F90E1000F013B800003F
:1016600038B5074D04460846114600222A601A463E
:10167000FEF7E8FE431C02D12B6803B1236038BD9E
:101680009001002038B5064D0023044608462B6023
:1016900000F05AF8431C02D12B6803B1236038BD17
:1016A0009001002038B5074D002304460846114636
:1016B0002B6000F051F8431C02D12B6803B123606A
:1016C00038BD00BF9001002038B5064D0023044608
:1016D00008462B6000F050F8431C02D12B6803B180
:1016E000236038BD9001002038B5074D04460846F8
:1016F000114600222A601A4600F04EF8431C02D11F
:101700002B6803B1236038BD900100200148FFF72A
:101710006FBD00BF820100200148FFF76ABD00BF16
:101720008201002038B5074D0446084611460022C4
:101730002A601A4600F038F8431C02D12B6803B126
:10174000236038BD90010020024B58221A604FF0F0
:10175000FF30704790010020024B58221A604FF072
:10176000FF30704790010020024B58221A604FF062
:10177000FF30704790010020024B58221A60002071
:10178000704700BF90010020024B58221A604FF0B2
:10179000FF30704790010020024B58221A604FF032
:1017A000FF30704790010020024B58221A604FF022
:1017B000FF30704790010020044A05491368002B50
:1017C00008BF0B461844106018467047940100206B
:1017D00098010020FEE700BF09048161704700699D
:1017E00008407047436901EA030221EA030141EA24
:1017F0000241816170472DE9F0410568C468002607
:101800004FF0030E43FA06F7FF070DD577000EFAE7
:1018100007FC01FA07F825EA0C0524EA0C0402FA91
:1018200007F748EA05053C430136102EEAD105606A
:10183000C460BDE8F081F0B5076A466A00234FF046
:101840000F0C42FA03F4E50707D59D000CFA05F4E6
:1018500027EA040701FA05F52F430133082BF0D1DD
:1018600000234FF00F0C03F1080442FA04F4E407DC
:1018700007D59C000CFA04F526EA050601FA04F4E3
:1018800026430133082BEED107624662F0BD00000B
:10189000062831D8DFE800F0040A0F1419212900C6
:1018A000164A136843F0807313607047134A136835
:1018B00043F48033F8E7114A136843F48073F3E785
:1018C0000E4A136843F00103EEE70C4AD2F8903059
:1018D00043F00103C2F890307047084AD2F89430C0
:1018E00043F00103C2F894307047044AD2F89830AC
:1018F00043F00103C2F89830704700BF0010024067
:1019000010B5039C0139640644EA01142043029C8B
:1019100040EA4450034343EA0222024B42F0807201
:10192000DA6010BD00100240430903F1804303F563
:10193000043300F01F001968012202FA00F0084386
:1019400018607047430903F1804303F50433012213
:10195000196800F01F0002FA00F0014319601A68CC
:1019600022EA000018607047C3681943C1607047DD
:1019700003690B4214BF012000207047C943016175
:101980007047036843F0010303607047816270474A
:10199000C16270470E4A904210B54FEA510306D11A
:1019A0000C4A12681A44B2FBF1F2C2600FE00A4C12
:1019B0000A4AA0421268F5D1B2FBF1F401FB1422ED
:1019C00003EB0222B2FBF1F303EB0423C36010BD6F
:1019D00000380140680000200080004064000020C2
:1019E000036808290CBF23F4805343F48053036039
:1019F0007047436823F440531943416070470368BC
:101A000023F4C063194301607047036823F00C039B
:101A1000194301607047836823F440731943816060
:101A20007047036843F001030360704713B5044631
:101A3000019100F018F80199204602B0BDE810406D
:101A400000F009B810B5044600F011F82046BDE8D2
:101A5000104000F004B8C1F3080181627047406A89
:101A6000C0F308007047C3691B06FCD57047C36903
:101A70009B06FCD57047C3690B4214BF01200020B0
:101A80007047FEE77047000038B51D4A1D4B1E49E0
:101A90008B4220D31D4A0021934221D34FF0E023F3
:101AA0001B4CD3F8142D1B4D42F40072C3F8142DB7
:101AB000D3F8882D42F47002C3F8882DAC4212D3BB
:101AC000154C164DAC4212D3FEF734FD144C154D97
:101AD000AC4210D338BD52F8040B43F8040BD7E7DF
:101AE00043F8041BD8E754F8043B9847E6E754F85A
:101AF000043B9847E6E754F8043B9847E8E700BF03
:101B0000541D0008000000206C00002098010020F7
:101B1000541D0008541D0008541D0008541D0008E1
:101B2000541D0008541D00087073745F6D6500003B
:101B3000536F757263652F63697263756C6172426E
:101B400075666665722E68007073745F6D65202619
:101B5000262070635F6275666620262620755F7397
:101B6000697A6500666E5F63697263427566664591
:101B70006D707479287073745F6D652900000000C2
:101B80007073745F6D65202626207073745F6D65B9
:101B90002D3E70635F6275666665720070635F6498
:101BA000617461007073745F6D652D3E70635F6278
:101BB0007566666572000000496E64657465726DD5
:101BC000696E61746520627574746F6E20737461E0
:101BD0007465212E2E2E2044656661756C74696EC5
:101BE0006720746F20456E63727970742100000065
:101BF000666E5F6369726342756666496E697400FA
:101C0000666E5F6369726342756666456D7074796E
:101C100000000000666E5F6369726342756666521B
:101C20006573657400000000666E5F7265747265AE
:101C30006174506F696E746572000000666E5F6358
:101C4000697263427566664765740000666E5F611F
:101C50006476616E6365506F696E74657200000032
:101C6000666E5F63697263427566665075740000E4
:101C700054454E4E4553534545544543482C2066E4
:101C8000756E6374696F6E3A200061737365727468
:101C9000696F6E2022257322206661696C65643A43
:101CA0002066696C6520222573222C206C696E6584
:101CB000202564257325730A00000000040000201D
:101CC000232D302B2000686C4C0065666745464725
:101CD00000303132333435363738394142434445A8
:101CE0004600303132333435363738396162636417
:101CF0006566000000000000000000000000000019
:101D000000000000000000000000000000000000D3
:101D100000000000000000000000000000000000C3
:101D200000000000000000000000000000000000B3
:101D300000000000000000000000000000000000A3
:101D40000000000000000000000000000000000093
:041D5000000000008F
:101D54000400002000000000141D0008341D0008C9
:101D6400F41C000800000000000000000000000057
:101D7400000000000000000000000000000000005F
:101D8400000000000000000000000000000000004F
:101D9400000000000000000000000000000000003F
:101DA400000000000000000000000000000000002F
:0C1DB4000000000000093D0000093D0097
:0400000508001A894C
:00000001FF
