:020000040800F2
:10000000008002204D1F0008491F0008471F0008FC
:10001000471F0008471F0008471F00080000000096
:10002000000000000000000000000000491F000860
:10003000491F000800000000491F00087D1100084A
:10004000471F0008471F0008471F0008471F0008F8
:10005000471F0008471F0008471F0008471F0008E8
:10006000471F0008471F0008471F0008471F0008D8
:10007000471F0008471F0008471F0008471F0008C8
:10008000471F0008471F0008471F0008471F0008B8
:10009000471F0008471F0008471F0008471F0008A8
:1000A000471F0008471F0008471F0008471F000898
:1000B000471F0008471F0008471F0008471F000888
:1000C000471F0008471F0008471F0008471F000878
:1000D000471F0008471F0008DD110008471F0008E0
:1000E000471F0008471F0008471F0008471F000858
:1000F000471F0008471F0008471F0008471F000848
:10010000471F0008471F0008471F0008471F000837
:10011000471F0008471F0008471F0008471F000827
:10012000471F0008471F0008471F0008471F000817
:10013000471F0008471F0008471F0008471F000807
:10014000471F0008471F0008471F0008471F0008F7
:10015000471F0008471F0008471F0008471F0008E7
:10016000471F0008471F0008471F0008471F0008D7
:10017000471F0008471F0008471F0008471F0008C7
:10018000471F0008471F0008471F0008471F0008B7
:10019000471F0008471F0008471F0008471F0008A7
:1001A000471F0008471F0008471F000838B50446CE
:1001B000837863F07F0383700388A3B1632B1FD020
:1001C00008238370002303800325284638BD0423B9
:1001D000A3700325F9E7A37843F00103A370A37884
:1001E00013F0010FF1D120214FF0904001F04DFDAF
:1001F00000F0BEFFA0600A4B1B68E360632323800E
:10020000A07810F00405E2D1E168A06800F01AFDC2
:100210000028E0D0A37823F00103A370DFE700BF3C
:100220000000002010B50446837863F07F038370DC
:1002300003883BB1732B14D0082383700023038001
:10024000032010BD4FF40051204801F01BFD30BBCE
:100250001F4B00221A70A37803F07F03A37073234F
:100260002380A37813F004001DD113F0800F1ED15A
:1002700043F00103A370A37813F0010FE1D14FF411
:100280000051124801F0FEFCA8B9114B1B7813B1C4
:10029000104B00221A700E4B00221A70DBE70C4B39
:1002A00001221A70D7E70423A3700320C9E723F0C3
:1002B0000103A370DFE7064B1B7813B9054B00223F
:1002C0001A70034B01221A70C5E700BF00080048EE
:1002D00074000020CC00002070B50446837863F0E1
:1002E0007F0383700388002B00F01083DA2B00F269
:1002F000D683912BC0F0D383913B492B00F2CF835F
:10030000DFE813F006032303CD034403CD03CD033D
:10031000CD03CD0370008B00CD03CD03C900E600F3
:10032000CD03CD03CD03CD03CD031601CD032901AC
:100330004601CD03CD03CD037501CD038801A50191
:10034000CD03CD03CD03D501CD03E8010502CD03D7
:10035000CD03CD03CD03CD03CD03CD03CD03CD031D
:10036000CD03CD03CD03CD03CD03CD03CD03CD030D
:10037000CD03CD03CD03CD03CD03CD03CD03CD03FD
:10038000CD03CD03CD03CD03CD039703CD03D2021F
:10039000CD03CD03CD03F3020423A370032583E330
:1003A00043F00103A370C1E20423A37003257BE3A0
:1003B000A37843F00103A370D8E20423A3700325BC
:1003C00072E323F00103A370ECE2294B1B784C2B62
:1003D00040F0F182274B1A682749284800F0A2FF15
:1003E00099232380A37813F004052FD1244A12689F
:1003F00012F0040F2ED123F00103A370A37813F0A1
:10040000010F40F051831E4A136843F00403136048
:100410001C4B00221A809A232380A57815F004052E
:100420001CD11649174800F0A1FD02281AD9A3785B
:1004300023F00103A370A37813F0010F40F034837D
:100440000F4A136823F00403136048E20423A370E7
:10045000032529E343F00103A370CFE70423A3702E
:10046000032521E3A37843F00103A370E3E700BF72
:10047000CD000020000000204C2000087800002063
:1004800030190020E4190020B14B1B78532B40F0A9
:1004900095829D232380A37813F0040540F06F819B
:1004A000AC4A126812F0080F40F06D8123F001038E
:1004B000A370A37813F0010F40F0F682A54A1368E9
:1004C00043F008031360A44B00221A809E2323806C
:1004D000A57815F0040540F05A8101229C499E48F8
:1004E00000F086FD022840F25681A37823F0010334
:1004F000A370A37813F0010F40F0D682944B1B78C1
:10050000964A9A5C12F0040F00F04A81303B4FF497
:100510007A7202FB03F3924A13608E4A136823F047
:1005200008031360A37803F07F03A370A423238040
:10053000A37813F0040540F0378113F0800F40F0EA
:10054000378143F00103A370A37813F0010F40F04B
:10055000AB82A6232380A37813F0040540F02C81FE
:100560007C4A126812F0080F40F02A8123F0010340
:10057000A370A37813F0010F40F09682754A1368B8
:1005800043F008031360744B00221A80A7232380D2
:10059000A57815F0040540F0178101226C496E48DA
:1005A00000F026FD022840F21381A37823F0010316
:1005B000A370A37813F0010F40F07682644B1B7890
:1005C000664A9A5C12F0040F06D0303B64490A6810
:1005D000642000FB03230B605E4A136823F00803CA
:1005E0001360A37803F07F03A370AB232380A37869
:1005F00013F0040540F0F18013F0800F40F0F1801B
:1006000043F00103A370A37813F0010F40F04C8274
:10061000AD232380A37813F0040540F0E6804D4A13
:10062000126812F0080F40F0E48023F00103A37079
:10063000A37813F0010F40F03782464A136843F065
:1006400008031360444B00221A80AE232380A57850
:1006500015F0040540F0D18001223D493E4800F0EC
:10066000C7FC022840F2CD80A37823F00103A370D9
:10067000A37813F0010F40F01782354B1B78374AEF
:100680009A5C12F0040F07D0303B03EB830334492C
:100690000A6802EB43030B602E4A136823F0080339
:1006A0001360A37803F07F03A370B2232380A378A1
:1006B00013F0040540F0AA8013F0800F40F0AA80E8
:1006C00043F00103A370A37813F0010F40F0EC8115
:1006D000B4232380A37813F0040540F09F801D4AC3
:1006E000126812F0080F40F09D8023F00103A37000
:1006F000A37813F0010F40F0D781164A136843F036
:1007000008031360144B00221A80B5232380A578B8
:1007100015F0040540F08A8001220D490E4800F0D2
:1007200067FC022840F28680A37823F00103A370BF
:10073000A37813F0010F40F0B781054B1B78074AEF
:100740009A5C12F0040F10D0054A11680AE000BF4D
:10075000CD00002030190020CC190020A320000873
:10076000C80000200B44303B1360B74A136823F0E5
:1007700008031360B54B1A68B54B1A60AFE0042349
:10078000A370032590E143F00103A37091E60423D5
:10079000A370032588E1A37843F00103A370A8E6C2
:1007A000AA4B00221A60B8E60423A37003257BE15C
:1007B00023F00103A370C7E60423A370032573E1AC
:1007C00043F00103A370D4E60423A37003256BE177
:1007D000A37843F00103A370EBE60423A370032581
:1007E00062E123F00103A3700DE70423A370032546
:1007F0005AE143F00103A3701AE70423A370032511
:1008000052E1A37843F00103A37031E70423A370FE
:10081000032549E123F00103A37054E70423A370E7
:10082000032541E143F00103A37061E70423A370B2
:10083000032539E1A37843F00103A37078E701327F
:1008400084490A700021C2E0203BC9E01A32101A24
:10085000814A82FB0032C317C3EBE2031A2202FB78
:10086000130341337D4A1370D4232380A37813F0FC
:10087000040540F0E080744A126812F0040F40F062
:10088000DE8023F00103A370A37813F0010F40F082
:100890000B816D4A136843F004031360D1B1704BB0
:1008A00000221A80D6232380A57815F0040540F095
:1008B000E5806A4B19786A4800F01EFB022840F276
:1008C000E180A37823F00103A370A37813F0010F54
:1008D00040F0EA805C4A136823F004031360A378B5
:1008E00003F07F03A370DA232380A37813F00405B9
:1008F00040F0CD8013F0800F40F0CD8043F0010335
:10090000A370A37813F0010F40F0CE8091232380D1
:10091000A37813F004057FF43FAD4B4A126812F040
:10092000080F7FF43DAD23F00103A370A37813F00B
:10093000010F40F0B980444A136843F00803136084
:10094000484B00221A8092232380A57815F00405D5
:100950007FF42AAD01224149424800F049FB0228B8
:100960007FF626ADA37823F00103A370A37813F0DC
:10097000010F40F09980344A136823F00803136094
:10098000A37803F07F03A37094232380A37813F04C
:1009900004057FF412AD13F0800F7FF412AD43F025
:1009A0000103A370A37813F0010F7DD1294B1A78AE
:1009B000032A3FF40AAD032A3FF466AD274B1B78A8
:1009C000212B3FF43CAF234A002111700121264A1C
:1009D0009A5C12F003023FF447AF022A3FF434AFAF
:1009E000A3F14102D2B21D4B1A70204E3578204B34
:1009F000585D4138C0B21F4B18700135164B83FB50
:100A000005C39B1003EB430C03EB8C03EB1A337011
:100A1000194B1B78002B3FF419AF02440E4B83FB9C
:100A20000203DB101A2000FB132341330B4A13701F
:100A30001AE701211AE70423A370032534E043F0E9
:100A40000103A37020E700BF30190020C800002078
:100A500000000020CF0000204FECC44ECD0000204D
:100A6000E4190020CC190020A3200008CC000020AD
:100A700094200008CE000020740000200423A370FE
:100A8000032511E0A37843F00103A3701DE70423BD
:100A9000A370032508E023F00103A37031E70823C6
:100AA000A370002323800325284670BD08B50020CD
:100AB00001F0CCF94FF4006001F0C8F94FF4005395
:100AC00000221146054801F0E9F820230022012107
:100AD0004FF0904001F0E2F808BD00BF0008004868
:100AE00008B5FFF7E3FF064800F0CEFA054800F02E
:100AF0000FF8054800F00CF8044800F009F808BDAC
:100B000054200008AD01000825020008D9020008A1
:100B100030B5334B1D781F2D03D80024A64623463D
:100B200003E000203AE00133DBB21F2B37D803EBA0
:100B300043022C4901EBC2025268824206D0002CCB
:100B4000F1D1002AEFD19E460124ECE7254A03EBC0
:100B50004301CC0002EBC1010020105388704969A9
:100B60000968888020494B5501351D490D700EEBF1
:100B70004E0102EBC102128A5AB91C490A8801329D
:100B800092B20A800EEB4E0E164901EBCE0EAEF875
:100B9000102003EB4303134800EBC30030BDE4B166
:100BA000104B0EEB4E02D40003EBC202506000214A
:100BB000195391705069006881800B4901F805E074
:100BC000013507490D7009480188013189B201805A
:100BD00011820EEB4E0E1046E0E70020DEE700BF6C
:100BE0003D19002010070020100A00203A190020AB
:100BF000002301E00133DBB20E4A12789A4217D982
:100C00009C460D4AD25CFD2AF4D802EB42020B4905
:100C100001EBC20252688242ECD1074BFE2203F87C
:100C20000C20074A136843F001031360012070474A
:100C3000002070473D190020100A002010070020F6
:100C40003019002038B504460D4600F091FA031B18
:100C5000A04200D2013BAB4201D9012038BD0020A7
:100C6000FCE7000038B5134B1D78002403E0013D7C
:100C7000EDB20134E4B2E5B10123A3400E490968A5
:100C80000B42F6D004EB44018B000C4919448B68ED
:100C9000013B8B60002BEAD1084904EB4400830040
:100CA0000B445868986004EB44029300CB58984773
:100CB000DDE738BD38190020341900205006002027
:100CC00010B5002423E004EB4403DA00214B134465
:100CD00000215960204AFF20105504EB4402D00047
:100CE0001E4A024451601E4A02EBC400586104EBE4
:100CF000440399001B4B0B4442F83430C4EB0412FC
:100D0000D3001949194400F0D3F90134E4B21F2C7F
:100D1000D9D90023154A13600F2B08D803EB4301E0
:100D20008A001349002088500133DBB2F4E7002326
:100D3000104A1370104A1370104A1370202000F0EC
:100D4000B5F800F025FA00F0B9F900F0B5F8FFF7B2
:100D5000C7FE10BD10070020100A0020D0000020A0
:100D600050050020D0030020300A00203419002054
:100D7000500600203D1900203C19002038190020A1
:100D800070B5FFF79DFF234B00221A801CE0013451
:100D9000E4B2B44213D2204B1D5D05EB45031F485E
:100DA00000EBC300436898470328F0D105EB4505E5
:100DB0001A4B03EBC5056868FFF71AFFE7E7184B06
:100DC0001B6813F0010F03D1164B1E780024E0E7D7
:100DD000144A1178104A525CFE2A03D099B10139A5
:100DE000C9B2F7E74A1CD2B205E0541E0A48855C36
:100DF00005550132D2B2B242F7D3013E064AFF2076
:100E00009055F6B2EAE7074A167023F00103044A48
:100E10001360D9E73A190020100A002010070020BB
:100E2000301900203D190020002343808380028078
:100E3000816070478388B0F800C063450BD2428858
:100E4000134493FBFCF20CFB123382689BB2D15427
:100E500083880133838070474388828813440288E3
:100E600093FBF2FC02FB1C3382689BB2D154838853
:100E70000288934202D00133838070474388013354
:100E800093FBF2F102FB1133438070470346816804
:100E90004288885C0132198892FBF1FC01FB1C221C
:100EA0005A809A88013A9A8070470000014B186076
:100EB000704700BF4019002010B5094C094B236052
:100EC00009480A4B186040220949FFF7ADFF40224C
:100ED00008492068FFF7A8FF00F01EFA10BD00BF08
:100EE000C4190020FC190020081A0020C81900208D
:100EF000841900204419002010B50446837843F07B
:100F00008003837002883AB1542A09D00823A37061
:100F100000232380032010BD124A11705422028046
:100F200013F0040015D1104A12681188928891427A
:100F300013D023F00103A370A37813F0010FEAD1BB
:100F4000084B1978084B1868FFF774FF00F024F974
:100F5000DCE70423A3700320DDE743F00103A37063
:100F6000EAE700BF1E1A0020C819002010B5044689
:100F7000837863F07F03837003883BB1BF2B0ED06F
:100F80000823A37000232380032010BD164B196093
:100F9000154B1B681B78002BF2D0BF232380A3784E
:100FA00013F0040018D1114A1268118892889142F6
:100FB00016D023F00103A370A37813F0010FE4D13E
:100FC000094A1368591C11601978084B1868FFF713
:100FD00031FF00F0E1F8DBE70423A3700320D4E73E
:100FE00043F00103A370E7E7181A0020C819002096
:100FF000F8B50446837863F07F03837003883BB1C0
:10100000D72B14D00823A370002323800320F8BD1E
:10101000194B1A70194B1960194B00221A70184B92
:101020001A78154B1B789A42ECD2D7232380A378E9
:1010300013F0040017D1134A12689288BAB123F052
:101040000103A370A37813F0010FE0D10C4D2E78AB
:101050000A4B1F680B4B1868FFF718FFB8552B7821
:1010600001332B70DBE70423A3700320CFE743F0A9
:101070000103A370E6E700BF1C1A0020141A002029
:101080001D1A0020C419002010B504460AE0074BC1
:101090001868028883889A42F9D00134FFF7CAFEA3
:1010A00000F07AF821780029F1D110BDC81900208C
:1010B00008B578220068FFF7B7FE08BD10B582B00A
:1010C000042000F099FF244800F08EFF00F0A8FFF4
:1010D00000F09EFF022000F06FFE00F0B1FD042042
:1010E00000F0B6FD00F0BEFD00F0C4FD0024019448
:1010F0000094234628220421022000F093FE20467B
:1011000000F05AFE4FF4186000F0A0FE40F6811087
:1011100000F09CFE40F6821000F098FE40F683102E
:1011200000F094FE40F6841000F090FE4FF4406012
:1011300000F08CFE032000F06BFE204600F018FE4D
:10114000064B074A1360074A1360074A1360074BB0
:101150001C6002B010BD00BF8038010000B4C404A0
:10116000680000206C00002070000020201A002081
:10117000014B1868704700BF201A002008B5034AC9
:10118000136801331360FFF76DFD08BD201A0020BE
:1011900008B500F069FE08BD0C4B1B6813F0100F7A
:1011A00000D0704710B543F01003084A1360084B95
:1011B0001868FFF76BFE0146064B1870064C204678
:1011C00000F0B9FE204600F0ACFE10BD3019002042
:1011D000C8190020251A00200044004010B54FF027
:1011E0004023D3F8003413F0200F06D04FF04023F3
:1011F000D3F81C3413F0200F1AD14FF04023D3F84A
:10120000003413F0800F1DD04FF04023D3F81C346E
:1012100013F0800F16D0124B186883889BB91148C1
:1012200000F084FE104A136823F01003136009E0F5
:101230000C4800F084FEC1B20C4B19700C4B1868BE
:10124000FFF70AFE10BDFFF721FE0146094B18709B
:10125000044C204600F06FFE204600F062FEF1E7ED
:10126000C81900200044004030190020241A002032
:10127000C4190020251A002038B50546262000F0A4
:10128000D7FE40F6113000F0E1FD042300220221D8
:101290004FF0904000F002FD0823002202214FF0A1
:1012A000904000F0FBFC0823012211464FF09040D3
:1012B00000F016FD042207214FF0904000F02BFDB6
:1012C000082207214FF0904000F025FD114C2946DF
:1012D000204600F0D1FD0821204600F0F7FD002156
:1012E000204600F0FCFD0C21204600F004FE002109
:1012F000204600F0FAFD0021204600F002FE2046C4
:1013000000F014FE204600F007FE204600F0FFFD2E
:1013100038BD00BF0044004008B54FF46140FFF7FE
:10132000ABFF08BD0EB400B59CB01DAB029006909B
:101330006FF00041094807910491094953F8042BC3
:1013400005910068019302A900F068F8029B002251
:101350001A701CB05DF804EB03B070470400002065
:101360000802FFFF2DE9F0478E689E4282460C4638
:1013700090461F4638D88A8912F4906F32D025687B
:101380000969A5EB0109656905EB450505EBD5750F
:1013900001334B446D109D4238BF1D46530531D576
:1013A000294600F099FB064650B90C23CAF80030D4
:1013B000A38943F04003A3814FF0FF30BDE8F087DD
:1013C00021694A4600F014FBA38923F4906343F09B
:1013D0008003A381266165614E44A5EB0905266063
:1013E000A5603E46BE4200D93E4620683246414690
:1013F00000F00CFBA3689B1BA360236833442360AD
:101400000020DBE72A4600F0C1FB06460028E1D1B8
:101410002169504600F014FBC7E700002DE9F04FAA
:1014200098468B891B069DB007460D4614460ED57F
:101430000B6963B9402100F04FFB2860286120B997
:101440000C233B604FF0FF30D1E040236B61002361
:10145000099320238DF82930CDF80C803023DFF854
:10146000A8818DF82A304FF0010923469A4613F8D7
:10147000012B0AB1252AF9D1BAEB040B0BD05B463C
:10148000224629463846FFF76DFF013000F0AA805A
:10149000099A5A4409929AF80030002B00F0A28071
:1014A00000234FF0FF32CDE905230AF1010A04932E
:1014B00007938DF853301A935446052214F8011BF4
:1014C000514800F045FA049AD8B9D00644BF202309
:1014D0008DF85330110744BF2B238DF853309AF801
:1014E00000302A2B15D0079A544600204FF00A0CE2
:1014F000214611F8013B303B092B4ED9B0B1079280
:1015000014E0A0EB080309FA03F313430493A24683
:10151000D2E7039B191D1B680391002BBBBF5B42E5
:1015200042F0020207930793B8BF049223782E2B50
:101530000CD163782A2B35D1039B1A1D1B680392AB
:10154000002BB8BF4FF0FF3302340593DFF8C8A07B
:1015500021780322504600F0FBF940B14023A0EB74
:101560000A0003FA00F0049B03430134049314F8C7
:10157000011B26488DF82810062200F0E9F9002802
:1015800038D0234B1BBB039B073323F007030833DF
:101590000393099B3344099367E70CFB02320C4623
:1015A0000120A5E700230134059319464FF00A0CEA
:1015B000204610F8012B303A092A03D9002BC5D058
:1015C0000591C3E70CFB012104460123F0E703ABBF
:1015D00000932A460F4B04A93846AFF30080421C03
:1015E0000646D6D1AB895B063FF52CAF09981DB0F6
:1015F000BDE8F08F03AB00932A46064B04A938469A
:1016000000F07AF8EBE700BFA3210008AD21000845
:101610000000000065130008A92100082DE9F0472B
:10162000164699468A680B69DDF820809342B8BF58
:101630001346336091F8432007460C460AB1013344
:1016400033602368990642BF3368023333602568EC
:1016500015F0060506D104F1190AE36832689B1AF1
:10166000AB4226DC94F84320131E226818BF0123E6
:1016700092062BD404F1430249463846C047013054
:101680001ED02368E568326803F00603042B08BF08
:10169000AD1AA36822690CBF25EAE57500259342BF
:1016A000C4BF9B1AED1800261A34B5421AD1002087
:1016B00008E00123524649463846C047013003D16D
:1016C0004FF0FF30BDE8F0870135C6E7E1185A1C3E
:1016D000302081F84300224494F8451082F84310EA
:1016E0000233C7E70123224649463846C047013046
:1016F000E6D00136D9E700002DE9FF470F7E0C9DAB
:10170000782F914680460C469A4601F1430207D84D
:10171000622F0AD8002F00F0D880582F00F0A38045
:1017200004F1420584F842703AE0A7F16303152BF7
:10173000F6D801A151F823F091170008A517000869
:101740002117000821170008211700082117000899
:10175000A517000821170008211700082117000805
:1017600021170008B1180008D517000893180008C1
:101770002117000821170008D318000821170008B6
:10178000D517000821170008211700089B1800082A
:101790002B681A1D1B682A6004F1420584F8423048
:1017A0000123A3E020682968060601F104030AD595
:1017B0000E682B60002E03DA2D23764284F8433026
:1017C0005E480A2319E00E682B6010F0400F18BF26
:1017D00036B2EFE72B682068191D2960010601D594
:1017E0001E6802E04606FBD51E8854486F2F0CBFCA
:1017F00008230A23002184F843106568A560002DA2
:10180000A2BF216821F0040121600EB9002D4DD046
:101810001546B6FBF3F103FB1167C75D05F8017DC3
:101820003746BB420E46F4D9082B0BD12368DE079E
:1018300008D5236961689942DEBF302305F8013C71
:1018400005F1FF35521B2261CDF800A04B4603AADB
:1018500021464046FFF7E2FE01304CD14FF0FF3009
:1018600004B0BDE8F087354881F8457029682368E1
:1018700051F8046B29601D0614D5DF0744BF43F0FF
:10188000200323601EB9236823F020032360102364
:10189000B0E7236843F0200323607823284884F8C6
:1018A0004530E3E7590648BFB6B2E6E71546BBE761
:1018B0002B6826686169181D286035061B6801D5EC
:1018C000196002E07006FBD51980002323611546DC
:1018D000BAE72B681A1D2A601D6862680021284635
:1018E00000F036F808B1401B606063682361002394
:1018F00084F84330A8E723692A4649464046D04742
:101900000130ABD023689B0713D4E068039B984257
:10191000B8BF1846A4E70123324649464046D0479F
:1019200001309BD00135E36803995B1AAB42F2DCCE
:10193000EBE7002504F11906F5E700BFB421000824
:10194000C5210008000000000000000000000000A9
:1019500001F0FF01102A2BDB10F0070F08D010F860
:10196000013B013A8B422DD010F0070F42B3F6D164
:10197000F0B441EA012141EA014122F007047FF07D
:1019800000070023F0E80256083C85EA010586EAD4
:10199000010685FA47F5A3FA87F586FA47F6A5FA10
:1019A00087F68EB9EED1F0BC01F0FF0102F007021C
:1019B00032B110F8013B013A83EA010313B1F8D1C7
:1019C0000020704701387047002D06BF35460338A8
:1019D000073815F0010F07D1013015F4807F02BFE1
:1019E000013015F4C03F0130F0BC0138704700BF32
:1019F0000A44914200F1FF3300D1704710B511F84D
:101A0000014B03F8014F9142F9D110BD884210B546
:101A100001EB020402D98442234607D8431EA142A7
:101A200008D011F8012B03F8012FF8E70244014612
:101A30008A4200D110BD13F8014D02F8014DF7E7BD
:101A400037B5002944D051F8043C0190002BA1F196
:101A50000404B8BFE41800F0CFF81E4A01981368D8
:101A600033B96360146003B0BDE8304000F0CAB819
:101A7000A34208D9256861198B4201BF19685B68C8
:101A800049192160EDE71A465B680BB1A342FAD908
:101A900011685518A5420BD1246821445418A3425B
:101AA0001160E0D11C685B68536021441160DAE783
:101AB00002D90C230360D6E7256861198B4204BF65
:101AC00019685B68636004BF491921605460CAE704
:101AD00003B030BD281A0020F8B5CD1C25F0030551
:101AE00008350C2D38BF0C25002D064601DBA94218
:101AF00003D90C2333600020F8BD00F07DF82149A4
:101B00000A6814469CB9204F3B6823B921463046E9
:101B100000F062F838602946304600F05DF8431C5A
:101B200023D10C233360304600F06CF8E3E72368E0
:101B30005B1B17D40B2B03D923601C44256004E0E6
:101B40006368A2420CBF0B605360304600F05AF845
:101B500004F10B00231D20F00700C21ACCD01B1A81
:101B6000A350C9E722466468CCE7C41C24F00304F0
:101B7000A042E3D0211A304600F02EF80130DDD12A
:101B8000CFE700BF281A00202C1A0020F8B507461E
:101B900014460E4621B9BDE8F8401146FFF79CBF38
:101BA00022B9FFF74DFF25462846F8BD00F030F872
:101BB000A0420FD221463846FFF78EFF0546002887
:101BC000F2D031462246FFF713FF31463846FFF781
:101BD00037FFE9E73546E7E738B5064D0023044609
:101BE00008462B6000F01EF8431C02D12B6803B19D
:101BF000236038BD301A0020014800F011B800BF42
:101C0000341A0020014800F00CB800BF341A00203C
:101C100051F8043C181F002BBCBF0B58C01870476C
:101C200070477047044A05491368002B08BF0B46EC
:101C30001844106018467047381A00203C1A0020DB
:101C4000024A136843F48073136070470020024017
:101C5000034A136823F0070318431060704700BF5E
:101C600000200240024A136843F480631360704707
:101C700000200240024A136843F400731360704767
:101C800000200240006908407047436901EA0302EE
:101C900021EA030141EA0241816170472DE9F041E7
:101CA0000568C46800264FF0030E43FA06F7FF07E5
:101CB0000FD577000EFA07FC6FEA0C0C01FA07F853
:101CC0000CEA05050CEA040402FA07F748EA0505E0
:101CD0003C430136102EE8D10560C460BDE8F081B8
:101CE000012941680CBF19439943F0B541608168EF
:101CF0000024032643FA04F5ED0707D5650006FA2C
:101D000005F721EA070102FA05F529430134102CF1
:101D1000F0D18160F0BDF0B5076A466A00234FF04C
:101D20000F0C42FA03F4E50707D59D000CFA05F401
:101D300027EA040701FA05F52F430133082BF0D1F8
:101D40004FF00F0C42FA03F4E4070AD503F1804484
:101D5000083CA4000CFA04F526EA050601FA04F48E
:101D600026430133102BEDD107624662F0BD00001F
:101D7000032808D8DFE800F0160F08020D4A1368A0
:101D800013F00C0FFBD170470A4A1368C3F38103A9
:101D9000012BFAD17047074A1368C3F38103022B62
:101DA000FAD17047034A1368C3F38103032BFAD1B6
:101DB000704700BF0810024006280AD8DFE800F08C
:101DC000040A0F14191B1D000D4A136843F0807399
:101DD000136070470A4A136843F48033F8E7084AEF
:101DE000136843F48073F3E7054A136843F0010373
:101DF000EEE7044AF9E7044AF7E7044AF5E700BFCB
:101E000000100240901002409410024098100240CE
:101E1000034A136823F0030318431060704700BFA0
:101E20000810024030B5049C039D640644F08074A1
:101E300044EA45542043184340EA02200139024B4A
:101E400040EA0110186030BD0C100240430903F154
:101E5000804303F5043300F01F021968012090400D
:101E60000843186070470000024A136843F00403F7
:101E700013607047000806500F4A904210B54FEAB1
:101E8000510306D10D4A12681344B3FBF1F1C1604E
:101E900010E00B4C0B4AA0421268F5D1B2FBF1F0F6
:101EA00001FB102203EB0223B3FBF1F1064B01EB24
:101EB0000021196010BD00BF0038014070000020F3
:101EC000008000406C0000200C800040036808295E
:101ED0000CBF23F4805343F480530360704743687E
:101EE00023F44053194341607047036823F4C063EF
:101EF000194301607047036823F00C031943016024
:101F00007047836823F44073194381607047036806
:101F100043F0010303607047036843F0200303604C
:101F20007047036843F0800303607047036823F041
:101F3000800303607047C1F3080181627047406A03
:101F4000C0F308007047FEE77047000038B51B4932
:101F50001B4C1C480022531883421BD31A4A0021F1
:101F600093421BD3194A1A4C13681A4D43F4007359
:101F70001360536F43F470035367AC4211D3164C94
:101F8000164DAC4211D3FEF7FBFE154C154DAC427D
:101F90000FD338BD135953500432DCE719600433B2
:101FA000DEE754F8043B9847E7E754F8043B9847CA
:101FB000E7E754F8043B9847E9E700BF000000203A
:101FC000D8210008740000203C1A002014ED00E025
:101FD000D8210008D8210008D8210008D8210008FD
:101FE000D8210008D8210008024B20F07F4018605B
:101FF000704700BF14E000E0044A136800F00400DA
:1020000023F0040303431360704700BF10E000E0B7
:10201000024A136843F002031360704710E000E0C7
:10202000024A136843F001031360704710E000E0B8
:10203000054B420903EB820300F01F00012202FA64
:1020400000F01860704700BF00E100E02530346404
:10205000000000000A7372632F7461726765745F19
:102060006D335F3134466562323032322E632C205C
:102070006275696C74206F6E204665622031342071
:10208000323032322061742032303A32323A3433D4
:102090000A00000054454E4E4553534545544543B0
:1020A0004800002020202020202020202828282828
:1020B0002820202020202020202020202020202018
:1020C0002020208810101010101010101010101068
:1020D0001010100404040404040404040410101078
:1020E0001010101041414141414101010101010124
:1020F00001010101010101010101010101011010B2
:1021000010101010424242424242020202020202F7
:102110000202020202020202020202020202101083
:10212000101020000000000000000000000000006F
:10213000000000000000000000000000000000009F
:10214000000000000000000000000000000000008F
:10215000000000000000000000000000000000007F
:10216000000000000000000000000000000000006F
:10217000000000000000000000000000000000005F
:10218000000000000000000000000000000000004F
:10219000000000000000000000000000000000003F
:1021A000000000232D302B2000686C4C0065666712
:1021B00045464700303132333435363738394142BD
:1021C000434445460030313233343536373839618F
:0821D000626364656600000013
:1021D8007D00000008000020000000000000000052
:1021E80000000000000000000000000000000000E7
:1021F80000000000000000000000000000000000D7
:1022080000000000000000000000000000000000C6
:1022180000000000000000000000000000000000B6
:1022280000000000000000000000000000000000A6
:10223800000000000000000000093D0000093D000A
:0422480000093D004C
:0400000508001F4D83
:00000001FF
